:020000041000EA
:10000000002000082B0100100D0000008D010010E1
:1000100000000000000000000000000000000000E0
:100020000000000000000000000000008901001036
:10003000000000000000000089010010890100108C
:100040008901001089010010890100108901001048
:100050008901001089010010890100108901001038
:100060008901001089010010890100108901001028
:100070008901001089010010890100108901001018
:100080008901001089010010890100108901001008
:1000900089010010890100108901001089010010F8
:1000A00089010010890100108901001089010010E8
:1000B00089010010890100108901001089010010D8
:1000C00010B5064C2378002B07D1054B002B02D02E
:1000D000044800E000BF0123237010BDF8030008AE
:1000E00000000000F0140010044B10B5002B03D0EA
:1000F0000349044800E000BF10BDC04600000000F6
:10010000FC030008F01400100230800803D0013016
:100110000238FCD1C046C0467047EFF3108072B67B
:10012000704780F3108870477047FFF7FDFF72B685
:100130000F4C104DAC4209DA21686268A368043B99
:1001400002DBC858D050FAE70C34F3E70A490B4AEF
:100150000020521A02DD043A8850FCDC08480949A4
:100160000860BFF34F8F00F0CFFE00F079FEFEE78E
:10017000FC14001014150010F80300081406000801
:100180000000000808ED00E0FEE7FEE700B50420EF
:100190007146084202D0EFF3098001E0EFF30880D6
:1001A000043000F06BFCFEE7014B18607047C0465E
:1001B00010060008044B1B681A00AC3212881B6A38
:1001C0005043C0187047C046100600081D4B9842A7
:1001D0000FD010D840282FD005D8002830D01028B4
:1001E00028D019481EE0802828D080235B00984240
:1001F000F7D1144816E0154B984214D008D8A02324
:100200001B0698421CD0124B9842EAD1A0200BE06A
:10021000104B98420AD0104B984209D00F4B98428D
:10022000DFD10F487047A420C003FBE70D48F9E772
:100230000D48F7E70D48F5E70D48F3E70D48F1E7FE
:100240000020EFE706005200FF005200010000F01E
:10025000090000A0040000F0050000F0030000F019
:100260000100520002005200030052000100500041
:10027000020050000500520010B50020FFF79AFF61
:100280000A4B1C682300B0331B68C0180368002B9E
:100290000ADB074B1868FFF799FF012263689A6031
:1002A0009A68002AFCD110BD0248FCE7100600083D
:1002B00014040008020050000D4B10B5186000280F
:1002C00004D0FE235B42038000234380094B1B685C
:1002D0001A004C321278002A08D04D331B78002BBC
:1002E00004D002220449002000F0E0F810BDC0460E
:1002F00024040008100600084501000810B5024853
:10030000FFF7DAFF10BDC046B8030008064B1B68B4
:10031000B0331B68C3181B68002B03DA89B2416035
:10032000002070470148FCE71006000801008A0021
:100330000368002B04DA89B2C26081600020704734
:100340000048FCE701008A00064B1B68B0331B68BD
:10035000C3181B68002B03DAC36800200B607047CA
:100360000148FCE71006000801008A00024B1A68E9
:10037000002A00D11860704728040008F0B52C242A
:100380006043154C1F0024681D0A2018FF242540D7
:100390002740124C1B0C26680760346A4560836056
:1003A000AC36368877433F1907612F0080376D01DF
:1003B0007F01E71964190A4D47611F043B43641923
:1003C000236000238361059BC2610162002B01D081
:1003D0001B888381F0BDC046280400081006000871
:1003E00008100000F0B5836885B002AD2B80154B76
:1003F00002681B68066A9B8E476A9B18AB7043684D
:100400000095826AC16A040003930369C068FFF71C
:10041000B5FF00213B000A0000913000FFF7AEFF5E
:10042000216B280000F0DEFA0022AB5E002B06DB19
:100430001F2213401E3A9A401300034A136005B06E
:10044000F0BDC0461006000800E100E0F7B52C251D
:10045000134C684326686943341825690193711861
:10046000002D19D08869002818D12E68002E15DAC1
:100470006768012426004B689E40B44613689EB20C
:1004800063461B041E431660EA608C61BC40019BFE
:10049000A4B24B62AC60FEBD0248FCE70248FAE73A
:1004A0002804000804028A0007028A002C23434320
:1004B00006480068C018C369934204D9036A002043
:1004C0009200D15070470248FCE7C046280400085B
:1004D0000A028A0073B5002642690400D5680196B5
:1004E0002B0CB34221D01B0413601368194B006915
:1004F0001B68B0331B68C3181B68B34215DA01A927
:10050000FFF722FFB0420CD10198E26903681E0C8C
:10051000DBB29A4205D9226A9B009B58002B00D07F
:10052000984731002069FFF7F1FEADB2002D09D0E8
:1005300063691D6000251B68636AAB4205D098475C
:100540006562A56163691B6873BDA36A002BF8D05F
:100550009847F6E7100600082C2310B54343034ADA
:100560001068C018FFF7B6FF10BDC0462804000889
:10057000F8B5194B0F001B681A002E321278824210
:1005800027D9002925D01F250A68154021D1190037
:10059000AC310C88114E60431C6AD2080419290042
:1005A0007868346000F014FF29002000FFF7AEFEE9
:1005B0003A0029003068FFF7BBFE041E07D1010096
:1005C0003068FFF7A3FE03002000002B00D0044892
:1005D000F8BD0448FCE7C046100600082C040008DB
:1005E00001018A0003018A0010B5002A0DD10029FB
:1005F00014D10B4B1A681300AC331B885843136A91
:10060000C018084B1860080010BD002906D0064B22
:10061000196019005A60FFF7ABFFF5E70348F3E7ED
:10062000100600082C040008BC03000803018A001F
:10063000F7B5184F04003B680191DE6833688342C8
:1006400026D90025A94202D1FFF767FD05003868C9
:100650000368002B1ADA1F22012322409340640909
:100660007268A4001419226813420DD09A432260C4
:1006700000240021FFF74AFE019B002B02D1280035
:10068000FFF74FFD2000FEBD034CF2E7034CF3E7FC
:10069000034CF7E72C0400080201880003018800DE
:1006A00004018A000A4B1B68DB681A6882420DD974
:1006B00059681F23420918401E3B8340920050583E
:1006C0001840431E9841034BC01870470248FCE78E
:1006D0002C0400080001880004018A00A6220549B4
:1006E000D2008B580220DB439B0702D0012388589D
:1006F000184070470000264010B5FFF7EFFF0023B9
:10070000022801D1014B1B68180010BD30040008FD
:10071000094A83009B18D022920098580722104063
:10072000042807D1C022920098581F23034080203C
:10073000400018437047C0460000264010B5FFF740
:10074000E7FF03281CD005D8012816D013D9FFF7DE
:10075000D3FF11E01223FF33984213D01423FF3349
:10076000984217D0033B984217D10D4A0D4BD058F1
:10077000C00FC00300E00C4810BD0C4B1868FBE72D
:100780000B4BFBE70B4B186904231840F4D0802077
:100790000002F1E7024A084BE9E70020ECE7C04617
:1007A000000026400C05000000127A003404000806
:1007B0008C040008000027403C050000B023154AC7
:1007C000DB00D35810B59903DB01DB0F890BC37134
:1007D000114B0160D3580F24D904DB01DB0D0381D9
:1007E000B123DB00D358C90C8180190021408172EC
:1007F00019092140C172D9029B009B0F8373074BDB
:10080000C90CD35881815A05DB01520FDB0D82716F
:10081000038210BD00002640840500008C05000006
:1008200010B5104B421E1B683B331B78934216D900
:100830007F221F248030FF300B4B8000C3581A40AA
:100840000A701A0C2240180A8A701A012040E240ED
:10085000487000209B009B0FCA700B7110BD0348AD
:10086000FCE7C046100600080000264001004A00D0
:10087000F0B587B00400FFF761FF0600002C34D10B
:1008800001AD14222100280000F0A2FD2800FFF78E
:1008900095FFB023254ADB00D358002B03DAAC7B4D
:1008A000023C631E9C41EA79019F531E9A41A8882D
:1008B0000132002C16D00023190000F073FC002335
:1008C0000C0005003A003000190000F06BFCE60750
:1008D0006A0832436308801859412A00230000F057
:1008E00041FC0600300007B0F0BD114B1B683B33E4
:1008F0001B78A342F6D301AD05220021280000F0A9
:1009000067FD200029008034FFF78AFFFF34074B82
:10091000A400E3580024A34203DA2C79023C631EAE
:100920009C412F786878AA78C3E7C046000026402B
:1009300010060008E02210B50124094B8000920047
:10094000C018835880589B069B0F9C400F2318406B
:10095000FFF78EFF63081818210000F077FB10BD29
:1009600000002640144B30B51A68072413002833C2
:100970001B781F2B15D883081D00A5432C1E0FD1F3
:1009800003342040A040814012689B002032D318DD
:100990000A00FF2181401C686240114061401960DB
:1009A00030BD802320401B06184380239B01126822
:1009B000C91889008850F3E710060008064B9A68AA
:1009C0000300064810339B00824202D19858995088
:1009D0007047034AD058FBE700ED00E00000000834
:1009E00000000010F8B506000D0000283AD00023E2
:1009F000C05E002828DBB178FFF7B4FF0024FF2297
:100A0000032794460023F05E716883B21F40FF0005
:100A10006646BA4089013140D243B940002815DB0F
:100A2000114E83089B009B19C026B6009F593A407F
:100A3000114399510D4B9A680D4B9A4202D12900EE
:100A4000FFF7BCFF2000F8BD0A4CD8E70F26334063
:100A5000083B064E9B089B009B19DE693240114300
:100A6000D961E7E7034CEDE700E100E000ED00E0CD
:100A70000000000801005600FEE7000002680A4B73
:100A800010B51A6042685A6082689A60C268DA607B
:100A900002691A6142695A6182699A61C269DA61BE
:100AA000FFF7EAFF10BDC046D8030008B0235B057E
:100AB0009A89002A02D0988980B27047802040002D
:100AC000FBE700007FB5274B86000D00F458042992
:100AD00001D0012927D100200FE0A3682B420BD1C0
:100AE000E36829001A685B6802920193039302A8E5
:100AF000236898471C4B1C606469002C0BD01B4B6F
:100B00009842EAD1012DE8D1174B18481A68184BC2
:100B10009A5104B070BD012DFBD1144B9842F3D013
:100B2000134B9C51F5E7022906D10F4B1B68181E89
:100B3000EFD01C6903E01C006369002BFBD100208F
:100B4000002CE6D0A3682B4209D1E36829001A687B
:100B50005B6802920193039302A823689847246973
:100B6000EEE7C0467804000874040008FF00420065
:100B700060040008194B1B68190004C9C96F51189B
:100B80000968016219000831C96F5218126842627F
:100B90001A0041321278002A1FD09A68E032126897
:100BA000D2061AD5F222DB68D2019A580260F022EE
:100BB000D2019A5842600A4A9A588260094A9A5861
:100BC000C260094A9A580261084A9A584261084A22
:100BD0009A588261074A9B58C36170471006000803
:100BE00004780000087800000C78000010780000FD
:100BF0001478000018780000194B1B681A1D19683A
:100C0000D26F8A18016A11601A0008321968D26F0F
:100C10008A18416A11601A0041321278002A1ED0E7
:100C20009A68E0321268D20619D5F0224168DB6872
:100C3000D201995081680B4A9950C1680A4A99506B
:100C400001690A4A99504169094A99508169094ADA
:100C50009950C169084A99500168E8329950704723
:100C60001006000804780000087800000C780000E6
:100C7000107800001478000018780000B023F7B551
:100C80005B055A7807002126002A01D05E78F6B26B
:100C9000624D6B68002B00D07CE0FFF73EFA6B687A
:100CA0000090002B00D088E05D4C22681300AC332C
:100CB000198807234B43126A9B181A68002AFCDA2A
:100CC000DB68DA0020D51B0F1B0756480193FFF79E
:100CD00051FF5549212E00D074E090202268000178
:100CE000131DDC6F13681C1923680B40034323603A
:100CF000130008331268DB6FD3181A6811400843D9
:100D00001860484B019A13438022454E9205316882
:100D100013430A00AC321088072200244243096AB8
:100D20005218D36054605368FFF7C0FE80235B0005
:100D300098425CD1380000F05FFB32681300AC339E
:100D4000198807234B43126A9B181A68002AFCDA99
:100D5000DF68FB0003D538010009FFF74DFF334B77
:100D600032681F401300AC33198807234B43126AC3
:100D700000989B180022DF605A60FFF7D2F9002C20
:100D80000FD16B68002B03D008210120FFF79AFEDA
:100D90002000FEBD01210800FFF794FE041E00D1D3
:100DA0007BE76B68002B03D002210120FFF78AFE4E
:100DB0001F4B9C42ECD01F4CEAE704210120FFF7B7
:100DC00081FE71E7802220685200031DDC6F0368FA
:100DD0001C1923680B401343236003000833006889
:100DE000DB6FC318186801400A431A6089E732684C
:100DF0001300B0331B68126A9B181B68002B0ADBB8
:100E000004230D4A11690B431361012F01D030BF38
:100E100093E720BF91E7064C8FE7C04678040008AF
:100E20001006000838040008FF00FFFFFFFFFFDF87
:100E300005004200FF00420000ED00E0C0228020DB
:100E4000064952008B58C0059B009B0803438B50FA
:100E5000802388581B0603438B50704700002640B0
:100E600010B562B6034800F0C7F80020FFF706FF90
:100E7000FBE7C0460020001010B50020FFF76CFB18
:100E800010BD704710B50020FFF754FD002829D091
:100E9000154B1860154B1B681A1D1C68D36FE4189E
:100EA0002168090E013100F0D1F8114B186021685A
:100EB000090AC9B2013100F0C9F80E4B441E18608E
:100EC0000D49200000F0C2F8FA210C4B01301870D7
:100ED0008900200000F0BAF8094B01301860094B76
:100EE000C003186010BDC046C4000008100600080A
:100EF000C8000008C000000840420F00D4000008ED
:100F0000D0000008CC00000810B52148FFF74CF9CC
:100F1000B022E02130201F4CD200A35889005B0092
:100F20005B08A35063588343635080235B04A35042
:100F3000194B1A4AE250A02204339201E250FF22D8
:100F4000174BE250FFF77AFFC02201215200A3584D
:100F50008B43A350FFF795FFFFF794FF114B03203E
:100F60001A681300AC33198807234B43126A802197
:100F70009B180022DA605A600B4AFFF735FB0B48DA
:100F8000FFF7F4F90A48FFF72DFAFFF7B7F910BD9C
:100F90000814001000002640840500000100020033
:100FA0008C05000010060008C40300089004000827
:100FB000BC140010024BD86F032318407047C04682
:100FC0000400214010B5FFF7A8F80749074ACB6F86
:100FD0001A40074B1343CB67102306490A681A428D
:100FE000FCD0FFF79EF810BD04002140FCFF00007C
:100FF0000100FA058800214070B50F4C0600FFF78C
:101000008CF8E36F0500DB439B0701D1FFF7DAFFA4
:10101000B0230A4A9B00D650E36F094A09491A4097
:10102000094B1343E36710230A681A42FCD02800D7
:10103000FFF777F870BDC046040021400000214052
:10104000FCFF0000880021400300FA05002243084D
:101050008B4274D303098B425FD3030A8B4244D380
:10106000030B8B4228D3030C8B420DD3FF220902C2
:1010700012BA030C8B4202D31212090265D0030B81
:101080008B4219D300E0090AC30B8B4201D3CB0377
:10109000C01A5241830B8B4201D38B03C01A5241B9
:1010A000430B8B4201D34B03C01A5241030B8B42BB
:1010B00001D30B03C01A5241C30A8B4201D3CB02A6
:1010C000C01A5241830A8B4201D38B02C01A52418B
:1010D000430A8B4201D34B02C01A5241030A8B428E
:1010E00001D30B02C01A5241CDD2C3098B4201D3A6
:1010F000CB01C01A524183098B4201D38B01C01A24
:10110000524143098B4201D34B01C01A524103099A
:101110008B4201D30B01C01A5241C3088B4201D349
:10112000CB00C01A524183088B4201D38B00C01AF6
:10113000524143088B4201D34B00C01A5241411A1D
:1011400000D20146524110467047FFE701B500202A
:1011500000F006F802BDC0460029F7D076E77047D8
:101160007047C046002B11D1002A0FD1002900D1B1
:10117000002802D00021C943081C07B4024802A17C
:101180004018029003BDC046D9FFFFFF03B4684674
:1011900001B5029800F030F8019B9E4602B00CBCED
:1011A0007047C046F0B5CE46474615042D0C2E00BC
:1011B00080B50704140C3F0C9946030C7E435D4335
:1011C000674363437F19340CE4199C46A54203D955
:1011D00080235B029846C4444B4643435143250C4D
:1011E00036046544360C2404A4195B1959182000F0
:1011F0000CBC90469946F0BDF0B54F464646D646E3
:10120000C0B5040082B00D00914698468B422FD89D
:101210002CD04146484600F0CFF8290006002000B7
:1012200000F0CAF8331A9C46203B9A4600D576E077
:101230004B46524693401F004B46624693401E0069
:10124000AF4228D825D05346A41BBD41002B00DA5D
:101250007BE0002200230092019301235246934039
:101260000193012362469340009318E08242D0D953
:1012700000220023009201930A9B002B01D01C60E6
:101280005D600098019902B01CBC90469946A24648
:10129000F0BDA342D7D900220023009201936346F8
:1012A000002BE9D0FB079846414672080A437B08A9
:1012B00066460EE0AB4201D1A2420CD8A41A9D4171
:1012C000012024196D410021013E24184D41002EBA
:1012D00006D0AB42EED9013E24196D41002EF8D163
:1012E00000980199534600196941002B23DB2B001C
:1012F0005246D3402A006446E2401C005346150083
:10130000002B2DDB26005746BE40330026006746E3
:10131000BE403200801A994100900191ACE76246CC
:1013200020239B1A4A46DA406146130042468A400F
:1013300017001F4380E7624620239B1A2A00664657
:101340009A402300F3401343D4E762462023002150
:101350009B1A0022009101920122DA40019280E75B
:101360002023624626009B1ADE402F00B0466646C8
:10137000B74046463B003343C8E7C0461C21012323
:101380001B04984201D3000C10391B0A984201D368
:10139000000A08391B09984201D30009043902A246
:1013A000105C40187047C0460403020201010101AD
:1013B000000000000000000010B5002903D1FFF775
:1013C000DDFF203002E0081CFFF7D8FF10BDC0464B
:1013D00003001218934200D1704719700133F9E7E6
:1013E000F8B5C046F8BC08BC9E467047F8B5C04684
:1013F000F8BC08BC9E46704701B40248844601BC54
:10140000604700BFA1020008000021400000254005
:101410000000014000003440000024400000314042
:101420000000324000001F41000023400000114036
:10143000101010101010101010108000190055001E
:10144000F0000501053B04101C0101000FC0000065
:101450000004000001010101011D3A5778960008BF
:101460002000101208000000001F00000010000FF4
:10147000002000023F06080E00080009000A000BC9
:1014800024282C30340000001000000090000000E0
:1014900088000000080000008000000004F0000048
:1014A00000F00000400200002005A000D001000173
:1014B0008001A001200000001000000003000000D7
:1014C00001000000010000000000000005036000B2
:1014D0000400000001000000000000000100000006
:1014E0000604600008000000F0050008790E0010F6
:1014F0000000000004FDFF7F01000000000000105C
:1015000000000008C00000001C150010C00000080A
:10151000F8020000F80300081C02000000093D006A
:1015200000127A0000093D000000D007A00F000063
:1015300004000000E9000010C100001080B230B5C6
:10154000C00020D0104B07221C682300AC331B883E
:101550005A43236AD31819680029FCDA3E210B4B41
:10156000062519600A4B0B491960A3210A4BC900D3
:101570005D500A4958505858206A1218002050608F
:101580005A58002AFCDA30BD100600080401264033
:10159000080126401E1F0000000026401C05000018
:1015A00010B54378FF2B11D100F00CF90400032093
:1015B00000F028F9C3685A680123116819431160C3
:1015C00011681942FCD1200000F0E4F810BDF7B515
:1015D00000900020019100F015F93F4D06002B68A6
:1015E0001A004C33B03214681B780419002B5AD0FF
:1015F00000F0E0F8070003281BD000F0E3F8374ABA
:10160000374B0500D358002B3EDA364A0121300013
:1016100000F0F0F8002837D10198FFF78FFF009B0A
:10162000002B3ED02368002BFCDB00F0DBF804002D
:101630002BE0062000F0E6F82B68B0331B68C018DA
:101640000368002B02DA284C2000FEBD002000F0C9
:1016500099F8264B9842F6D00023254A19001268C3
:10166000012000F09FF80025A842ECD1002000F0F6
:1016700089F81E4A1F4B904203D09D42E3D00135AA
:10168000F4E79D42B9D1DEE7174C032F05D10121C4
:10169000002000F09FF80028F9D1280000F07AF827
:1016A000D2E7154CF1E700F08DF80E4A0500012154
:1016B000300000F09FF8002809D1009B002B08D0D3
:1016C0002368002BFCDB00F08DF80400E5E7064CF6
:1016D000E3E7094CE1E7C046100600080000264099
:1016E0001C050000140400080500520001018800D8
:1016F00024040008F049020001005000184BF7B51F
:101700001B68184A5C68042311690B4313610128A4
:1017100024D030BF2300FC331B69002B1DD1A32034
:10172000114B1249124AC0000F681E5815680195E6
:10173000104D0D6006251D503E2010600E483E35B0
:101740001D501D58002DFCDA0C48FC3420610F6040
:10175000A321C9005E50019B1360F7BD20BFD9E7EC
:101760001006000800ED00E00000264008012640B9
:10177000040126401E1F00001C050000AAAAAAAAF8
:101780000000000001B40248844601BC604700BF6D
:10179000A506001001B40248844601BC604700BFA2
:1017A0002301001001B40248844601BC604700BF19
:1017B0004D04001001B40248844601BC604700BFDC
:1017C000B50F001001B40248844601BC604700BF59
:1017D0001B01001001B40248844601BC604700BFF1
:1017E0003106001001B40248844601BC604700BFC6
:1017F0007902001001B40248844601BC604700BF72
:101800003103001001B40248844601BC604700BFA8
:10181000B501001000000000000000000000000002
:1018200000000000000000000000000000000000B8
:10200000007804086B7700100D000000893900107B
:102010009139001099390010A1390010000000001A
:10202000000000000000000000000000D14F001080
:10203000C9770010000000006950001079500010AE
:10204000C9770010C9770010C9770010C977001050
:10205000C9770010C9770010C9770010C977001040
:10206000C9770010C9770010C9770010C977001030
:10207000C9770010C9770010C9770010C977001020
:10228000C9770010C9770010C977001010B5054C48
:10229000237833B9044B13B10448AFF30080012312
:1022A000237010BDF832000800000000047A01100D
:1022B00008B5034B1BB103490348AFF3008008BDC9
:1022C00000000000FC320008047A0110154B002BBE
:1022D00008BF134B9D46A3F5803A00218B460F465D
:1022E0001348144A121A0DF0B9FB0F4B002B00D003
:1022F00098470E4B002B00D0984700200021040087
:102300000D000D48002802D00C4802F0BBF90CF07B
:10231000DBFE2000290002F0D7FC02F0B5FB00BF75
:10232000000008000078040800000000254C0010A0
:10233000F83200083C5D00088546001000000000EF
:1023400010B5114C0021034620600846984701460D
:10235000C0B9236898470146A0B903212368052026
:102360009847014670B9236806209847014648B946
:10237000402123689847014620B923681D20BDE805
:1023800010401847084610BD1C4A000810B5064CFE
:10239000442123680020984728B92368342101206C
:1023A000BDE81040184710BD1C4A000810B5054C88
:1023B0000021236801209847236840210020BDE8C0
:1023C000104018471C4A000808B562B60BF0D0FF51
:1023D000FEE70000074B10B504460360806A08B1B1
:1023E00001F04EF92369201D0BB19B6898472046E8
:1023F00010BD00BF804E011010B50446FFF7EAFF84
:1024000020464FF48A7102F07DFB204610BDC36860
:1024100010B504460BB19B689847204610BD0000DC
:1024200038B50546064B45F8283B044600F062FAED
:102430002846FFF7ECFF204600F018FB204638BD89
:10244000F44E011010B50446FFF7EAFF2046402184
:1024500002F058FB204610BDF8B50446074654F874
:10246000045B95B90D4E306818B14FF0FF3103F0A1
:10247000E9FC3D682DB9254614B1204602F088FBE1
:102480003C60306808B103F0F5FCAC4204D08B220C
:102490000349044801F080FC2046F8BD804A00084A
:1024A000304E0110524E011008B5282002F028FBD2
:1024B0004FF0FF31031F00F1240243F8041F934241
:1024C000FBD1014B186008BD1433000838B50D4628
:1024D0001022002104460DF0C1FAEB681BB15B68C5
:1024E000294620469847EB68E360204638BD88427D
:1024F00038B504460D4606D0FFF789FF1CB12946C2
:102500002046FFF7E3FF204638BD10B5044601F032
:1025100037FD2046012105F051FABDE8104001F0D9
:1025200045BD10B5044601F02BFD2046002105F005
:1025300045FABDE8104001F039BD38B504460D46F6
:1025400001F01EFD2946204605F034FABDE838406A
:1025500001F02CBD30B4446801466CB1D0E90323CE
:1025600003F0010502B93DB15B10E0180DB1E3586D
:102570009A58896830BC104730BC7047094B1B68BB
:10258000C0F307429B690E2AC0B2D8BF03EBC21347
:10259000082800DD01BE1B6923FA00F000F00100ED
:1025A000704700BF105D000808B50379E3B1026809
:1025B000531C04D13F220D490D4801F0EDFB0D4B9A
:1025C0001B68C2F307409B690E28D2B2D8BF03EB49
:1025D000C013072A00DD01BE012000FA02F209B98A
:1025E0005A6008BD9A60FCE78160FAE7904E0110DE
:1025F000CC4E0110105D0008006808B5431C04D1E2
:1026000058220349034801F0C7FBFFF7B7FF08BD95
:10261000904E0110CC4E0110036870B5094D1B6837
:10262000044698472B68A34206D0D4F8081104F159
:10263000300005F06BFA2C60236820465B68BDE82B
:102640007040184740330008F7B51D46036804463C
:102650001B680E46174698472046FFF7DDFF9DF89A
:10266000203083F00103314600933A462B4604F1B3
:10267000300005F061FA236806465B6820469847FB
:10268000A81B18BF012003B0F0BD000070B588B0D2
:102690000024082301250DEB030016460095224671
:1026A000CDE90244049400F0E3FC082305A800955A
:1026B00022463146CDE90544079400F0D9FC05983F
:1026C000431C04D158222D492D4801F065FBFFF72A
:1026D00055FF00284ED002A8FFF78EFF012802D137
:1026E000002008B070BD082105A8FFF726FF05A847
:1026F000FFF70BFF0A24082105A8FFF71EFF0021A2
:1027000005A8FFF751FF052002F00FFA022105A8E6
:10271000FFF713FF012105A8FFF746FF052002F090
:1027200004FA013CE7D102A8FFF7EFFE214602A818
:10273000FFF73AFF052002F0F8F9012105A8FFF79D
:1027400033FF052002F0F1F9012102A8FFF72CFF69
:10275000052002F0EAF902A8FFF7E3FE05A8FFF75B
:10276000E0FE05A8FFF748FF20B102A8FFF744FFED
:102770000028B5D16FF00100B3E700BF904E011003
:10278000CC4E011008B50348FFF766FEBDE80840CF
:1027900002F006BA1833000808B50348FFF75CFEDC
:1027A000BDE8084002F01ABA18330008F8B51C4B0F
:1027B00004460E46174640F8043B102200210DF057
:1027C0004DF904F130050021164B6162C4E907118F
:1027D000A16284F82C1084F82D106361D822A461C2
:1027E00028460DF03BF9104BC4F808312046FFF79E
:1027F000C9FF3A463146C4F80C61C4F8107120464E
:10280000FFF744FFD4F81021D4F80C11284605F046
:102810002BF9064B20461C60FFF7BEFF2046F8BD93
:10282000804E011055250010A0860100403300089D
:102830006FF01500704703681B69184703689B69B0
:10284000184703689B6A184700290CBF6FF01800EF
:1028500000207047012070476FF0150070476FF03F
:102860001500704770472DE9F048D0E90245D0E9DE
:1028700008BC06461BEB04024CEB050300F0E6F82F
:10288000736B2BB106F128001B68BDE8F0481847B0
:10289000BDE8F08810B5044600F0AAF8084B2360A4
:1028A00000220023C4E908230021102204F128009B
:1028B0000DF0D4F8012384F83830204610BD00BF55
:1028C000F44E0110D0B5044616461F4601F058FBE1
:1028D000204600F0C5F8C4E90867A06900F096FE3C
:1028E000821941EB0703204600F0B0F8BDE8D04064
:1028F00001F05CBB1FB5044601F042FB204600F02E
:10290000AFF8636B23B194F838300BB101F0DCFD04
:102910001022002168460DF0A1F8694604F1280054
:10292000FFF7E5FD6846FFF772FD01F03FFB04B0DD
:1029300010BDF8B504461F460D46164601F020FBB3
:10294000636B23B994F838300BB101F0A7FD294629
:1029500004F12800FFF7CBFD32463B462046FFF747
:10296000B1FFBDE8F84001F021BB000010B5034BFA
:1029700003600446FFF754FD204610BD2C4F0110A4
:1029800010B50446FFF7F2FF2046402102F0BAF8E6
:10299000204610BD30B5044685B000F12805102250
:1029A000002168460DF05AF8636B1BB15B6829463D
:1029B00068469847636B03932046FFF79BFF039B92
:1029C0002BB940F23B220649064801F0E5F91B68A5
:1029D000684698476846FFF71AFD05B030BD00BF4E
:1029E000004F01101E4F011003689B68184700003C
:1029F000094B10B5002203600023C0E90223002325
:102A0000C0E90433044600F029FE0449A06100F047
:102A100073FD204610BD00BF404F0110E929001092
:102A200010B50446074B236000220023C4E90223AB
:102A300000230846A161C4E90433034900F05CFDAA
:102A4000204610BD404F0110E929001007B5009045
:102A500000F10801806900F08EFD03B05DF804FB11
:102A600000F10801806900F0B6BD000010B5034B0D
:102A700003600446FFF7F4FF204610BD404F0110ED
:102A8000036801221B6900211847036800221B69A3
:102A90001146184730B54FF47A7440F271256143FE
:102AA000B1FBF5F189B2032983809DF80C30837165
:102AB00098BF0423018098BF03800388B3F5804F3B
:102AC00088BF4FF4804304FB02F2B2FBF5F292B2EE
:102AD00088BF0380032A98BF0423428098BF4380A5
:102AE0004388B3F5804F84BF4FF48043438030BDAB
:102AF00003680BB10846184770470000044B0022DA
:102B0000C3E900229A601A61024ADA60704700BF86
:102B100044330008F12A00100346002210B503F8E0
:102B2000012B00F1110403F8012BA342FBD14182D8
:102B300010BD000008B542F602110248FFF7ECFF95
:102B400008BD00BF5833000807B500234FF480428A
:102B5000009311460248FFF79DFF03B05DF804FBA8
:102B60006C33000810B5044602F054F8204610BD3E
:102B700010B5084C204602F00BF8002384F82430EE
:102B8000C4E90A3323632046034A0449BDE81040E0
:102B900001F076BD743300088C220008652B00100C
:102BA000034610B107C983E807007047704710B4A7
:102BB0004468816862100346E40701EB02001B6869
:102BC00048BF8A585DF8044B48BFD358184738B5FA
:102BD00004460D4601F0D4F994F857302BB994F817
:102BE000563013B994F854308BB104F10800FFF754
:102BF00081FE002384F8553084F8563084F857302D
:102C00000DB12046A847BDE8384001F0CFB9A36C0C
:102C1000DB689847F7E710B5044601F0B1F9A36CFB
:102C20009B689847BDE8104001F0C0B910B5044654
:102C300001F0A6F9A36CDB689847BDE8104001F0ED
:102C4000B5B910B5044601F09BF9012384F857305B
:102C5000A36C5B699847BDE8104001F0A7B910B5B7
:102C6000044601F08DF9A36CDB699847044601F036
:102C70009DF9204610BD000038B5044601F07DF9ED
:102C800020B9C2221549164801F086F804F108005F
:102C9000FFF730FE002384F8553084F8563084F86E
:102CA0005730C4E917336366A36C012584F8585084
:102CB000DB699847436802681F2B93BF9D404FF024
:102CC000FF33A36605F1FF3502F5742303F23F23BA
:102CD00098BFA566B3FBF2F3E36638BD584F011009
:102CE000804F0110F8B504460E46083017461D46C1
:102CF000FFF7D0FD0B4BA3603368A364069B013341
:102D000023650135002384F85430E56401F038F977
:102D10007368636020462760FFF7AEFF01F046F955
:102D20002046F8BD2C4F011010B5044601F028F9DB
:102D30002046FFF7A1FFA36C1B689847BDE8104031
:102D400001F034B910B5044601F01AF92046FFF736
:102D500093FFA36C9B699847BDE8104001F026B92A
:102D600038B504460D4601F008F920B9F0220949AA
:102D7000094801F011F894F8560050B1D4E917232E
:102D8000934206D02946184600F094FA003018BF46
:102D9000012038BD584F0110804F011038B504464E
:102DA00001F0EEF8A36C5B68984794F85430054640
:102DB0003BB901462046FFF7D3FF10B1A36C5B6916
:102DC000984701F0F3F8284638BD000038B50546AD
:102DD0000C4601F0D2F820B9FC220449044800F066
:102DE000DBFFE86E6043043038BD00BF584F011070
:102DF000804F01107FB504460D4601F0BEF828B99A
:102E00004FF482723149324800F0C6FF94F85830CE
:102E1000A16E43B9636EE26CEB1A0B40934224BF80
:102E2000012384F85830E06D94F85830451B0D406C
:102E3000216DE3B994F8556076BB264B0294A94204
:102E4000CDE9003628BF2946234B03932046FFF7E0
:102E5000BDFF33460246694604F10800FFF769FDED
:102E60006846FFF7D4FA012384F8553014E08D4208
:102E700029D3A36C1B699847A36C5B689847E16DE5
:102E80006066081AA16E08400023854284F8583015
:102E900004D2A36C5B69984704B070BD236D834274
:102EA000FAD9216D0B4B009381420B4B03934FF0EA
:102EB000000528BF01462046CDE90154FFF786FFF3
:102EC0002B460246C7E72846EBE700BF584F0110E4
:102ED000804F0110212F00104C4F011038B50446CF
:102EE0000D4601F04DF8A36C5B689847012384F808
:102EF000563094F854300146C4E9175033B920468F
:102F0000FFF778FFBDE8384001F050B8A36C2846C1
:102F10001B699847236E6366002384F85830F1E7F5
:102F200038B5044601F02CF8002384F85530A36C22
:102F30005B6898470546D4E91720904206D1A36CF8
:102F40005B699847BDE8384001F030B8294600F089
:102F5000B1F90028F3D129462046FFF74BFFF1E7EE
:102F6000EFF31083DB4372B6044A117829B90449A0
:102F700003F001030B70012313707047A93300089D
:102F8000A833000808B5EFF31083DB0704D436221A
:102F90000549064800F000FF054B00221A70054B5A
:102FA0001B7803B162B608BDA04F0110CA4F0110D3
:102FB000A9330008A8330008014B1878704700BFF8
:102FC000A933000870B50E460446154604F0D4FC3B
:102FD000013609D02046002104F0F0FC29462046A5
:102FE000BDE8704004F0E6BC70BD000008B5037990
:102FF000E3B10268531C04D13F220D490D4800F093
:10300000CBFE0D4B1B68C2F307409B690E28D2B262
:10301000D8BF03EBC013072A00DD01BE012000FA70
:1030200002F209B95A6008BD9A60FCE78160FAE7CC
:10303000904E0110CC4E0110105D000870B50E4688
:103040000446154604F098FC01360DD0294620466A
:10305000FFF7CCFF2046012104F0B0FC20460821F8
:10306000BDE8704004F0A6BC70BD0022FFF7E6BFCB
:10307000F8B5069E04460F461D4652B91A46FFF79C
:10308000A1FF013717D031462046BDE8F840FFF7D1
:10309000ADBF04F071FC01370DD031462046FFF77B
:1030A000A5FF2046012104F089FC29462046BDE801
:1030B000F84004F07FBCF8BD014800F051B800BFF3
:1030C000E44F0110014B186800F034B8902200085A
:1030D000014B1868FFF7C3BDF0330008014B1868B7
:1030E000FFF730BEF0330008014B1868FFF7A9BDA9
:1030F000F0330008024B01461868FFF7EFBE00BF2F
:10310000F0330008014B1868FFF790BDF03300085A
:10311000014B1868FFF77FBDF0330008014B1868BA
:10312000FFF73CBEF0330008014B1868FFF7FCBD09
:10313000F033000810B5044600F022FF064B1B7860
:103140000BB9FFF7B9FF054B21461868FFF73FFDA4
:10315000BDE8104000F02ABF68340008F0330008D2
:10316000F7B50B4D0B4C074600F00AFF2B7853B90F
:10317000094E0A4A0323009339463046FFF7B2FD51
:10318000012326602B7000F011FF206803B0F0BD12
:1031900068340008F0330008F833000810500110BC
:1031A0002DE9F34DD0F8048098F83A300446002B0E
:1031B00064D103685B68984763681B6A83425DD08B
:1031C000D8F82010D8F80C30C8F82000411AD8F8E8
:1031D00008603748194086420C464FF0000546D03B
:1031E00098F83B30A1FB00120027D8E90AABCDE9E3
:1031F0000012002B45D0009921FA03F40199C3F184
:10320000200CA3F1200201FA0CFC21FA02F221FAAF
:1032100003F5DDE9000144EA0C04144310EB0A0055
:10322000A3F1200C41EB0B01C3F1200205FA03FBD3
:1032300004FA0CFC24FA02F204FA03FA4BEA0C0B2F
:103240004BEA020BB0EB0A0261EB0B03BB4208BF77
:10325000B24202D2C8E90A2309E0013445F100056F
:10326000921B63EB070310461946C8E90A01D8E927
:103270000C01021941EB0503C8E90C2302B0BDE8BB
:10328000F08D32463B46DDE9000111F041FC044679
:1032900012EB0A000D4643EB0B01B94208BFB042E6
:1032A000E3D3013445F10005821B61EB0703D1E74D
:1032B00040420F00824206D98A420BD9884294BF0D
:1032C000002001207047884206D98A428CBF002026
:1032D0000120704701207047002070472DE9F14F11
:1032E000476897F83A300646002B6DD197F8393089
:1032F000002B69D1FFF754FF75686968002966D013
:10330000D5E90C23D1E900018B4208BF824205D3E5
:1033100033685B6901B0BDE8F04F1847801A61EB74
:10332000030182468B46D5E90601594508BF504541
:103330002C6906D3A8682B4988420FD1544528BF71
:1033400054462A6A3B6A1444EA681440A3422DD1C9
:1033500040F21B122449254800F01EFD95F83B1051
:10336000F9B1A1F1200CC1F120000BFA01F90AFA20
:103370000CFC49EA0C092AFA00F049EA00090AFAA9
:1033800001F8DFF86CA0174A1AEB08004FF0000BA9
:103390004BEB0901002311F0BBFB844228BF04461C
:1033A000CFE7A0FB0A8900FB0B99EAE733682046C8
:1033B0001B69984733685B68984722460146386A1C
:1033C000FFF778FF0028A3D101B0BDE8F08F3B697B
:1033D000386AFA68184433681B69104001B0BDE8C8
:1033E000F04F184740420F0089500110A9500110BA
:1033F0003F420F002DE9F04F436893F8382085B025
:103400000446002A6AD193F83A30002B66D103684B
:103410001B6898472368DB699847D0F80080B8F1AB
:10342000000F07D12F493048CDF80080434642466F
:1034300000F00AFF1F23012202FA03F188455FFA18
:1034400083FA02D0013BF7D19A4645682B1F1C2B0B
:1034500005D9002300931A4624492548E8E74FF090
:10346000070918F1FF3009FA03F9224E4FF0000363
:1034700043F1FF314246C6FB090111F049FB636885
:10348000226803934FF0000BC3E900BB52680F465C
:1034900006469047039B0122186202FA05F563680D
:1034A00000210020013DC3E90A01C3E90C01C3F872
:1034B0000880204683F83BA0C3E90359C3E90667A7
:1034C00083F839B083F83AB083F83820FFF768FE04
:1034D000204605B0BDE8F04FFFF700BF05B0BDE8DE
:1034E000F08F00BF345001100E0104804D500110C8
:1034F0000501048040420F0038B505460C46FFF731
:1035000079FF00F03DFD6B681C60BDE8384000F0BD
:103510004DBD70B5044600F033FD2368DB68984765
:10352000636893F83A201AB1BDE8704000F03EBDE0
:10353000012283F8392063685B68A3B12046FFF756
:103540002FFE65686E68D5E90C01D6E90023994223
:1035500008BF904207D3F3686B602B68002BEAD05A
:10356000B0689847E7E76368002283F8392020466F
:10357000FFF7B4FED8E72DE9F84305460C4616469A
:103580001F46DDF8208000F0FBFC2846FFF708FE10
:103590006A68C4F80880C4E900675368002133B939
:1035A000E36069B954602846FFF798FE0FE0D3E95D
:1035B00000894F4508BF4645F2D31946DB68EEE760
:1035C000D2E90C23BB4208BFB242CC60EBD2BDE8CB
:1035D000F84300F0EBBC38B505460C4600F0D0FCD3
:1035E0006A685368A34209D1DB6853602846FFF735
:1035F00075FEBDE8384000F0D9BC1346002BF8D06A
:10360000DA68A242F9D1E268DA60F2E738B5044636
:10361000FFF7F0FE00F0B4FC2046FFF7C1FD636841
:10362000D3E90C4500F0C2FC2046294638BD08B558
:10363000FFF7ECFF08BD0000024B00221A7004F0F7
:103640000BBD00BF204A000808B504F04BFC024B3C
:1036500001221A7008BD00BF204A000800487047C8
:10366000D0500110024B1B680BB10248184770473D
:1036700094220008D0500110CA68496804F006BBC3
:10368000024B1B6803B11847704700BFB0340008F5
:1036900010B5044600F074FC204610BD10B5044679
:1036A00000F084FC204610BD0020704710B5044691
:1036B000FFF7B6F90C4B2360A069FFF7A7FF0022C4
:1036C0000023C4E90A230023C4E9080184F8303048
:1036D00084F8313084F8323084F8333084F8343070
:1036E00084F83530204610BD045101104FF0FF30F2
:1036F0007047000038B590F83450044625B1912247
:1037000009490A4800F048FBFFF7AAF994F8353058
:1037100084F8315084F832502BB184F83550BDE82C
:10372000384000F0D1BE38BD1051011037510110A2
:10373000283000F060BBD0E90A232DE9004812F1DF
:10374000010B43F1000CD0E90823C0E90ABC12F5D3
:103750007A7B43F1000CC0E908BCBDE800884DF855
:1037600004BDD0E908BC1BF57A724CF100035DF88A
:1037700004BBFFF76BB938B504468069FFF746FF15
:10378000D4E90823821A61EB0303002B08BFB2F5CA
:103790007A7F14461D4616D3002B08BFB2F5FA6F88
:1037A00013D3012B08BF002A05D24FF47A73B2FB62
:1037B000F3F0002106E04FF47A72002320462946F8
:1037C00011F0A6F938BD0020F3E70120F1E7000071
:1037D00090F834302DE9F048044613B990F8315090
:1037E00025B1E1221049114800F0D6FAFFF7C3FFD6
:1037F0004FF47A73A0FB036703FB0177D4E9082336
:10380000834690198C4643EB0701D4E90A23C4E9A7
:1038100008011BEB02004CEB030184F83050C4E9B3
:103820000A01BDE8F08800BF10510110415101109C
:103830002DE9F047994690F834300446904623B17C
:103840005B221949194800F0A7FA90F8315045B9A0
:10385000FFF7BEFF494508BF404504D3012384F864
:103860003230BDE8F0874FF47A73A8FB036794F811
:10387000352084F8325003FB0977012384F8313076
:1038800042B9A269126892F820201AB984F835303A
:1038900000F004FE002384F8333032463B462046D5
:1038A000BDE8F047FFF7D2B81051011037510110B1
:1038B000024B4FF080625A60704700BF00ED00E09D
:1038C00010B5012380F8343090F8303004460BB145
:1038D000FFF7EEFF2046FFF742FF10BD08B50121BC
:1038E000303000F076FA08B1FFF7E2FF08BD90F83B
:1038F000313010B504464BB1002380F8313090F8D8
:10390000333013B9012380F8323010BD90F83430D1
:10391000002BFAD090F83030013380F83030FFF7C8
:10392000C7FF2046FFF707FF2046FFF718FFECE729
:10393000024B4FF000725A60704700BF00ED00E08C
:1039400010B50446FFF78CF8002384F83430FFF7F5
:10395000EFFF10BD10B5064B03600446FFF7F0FF04
:103960002046FFF7C7FE2046FFF780F8204610BD2F
:103970000451011010B50446FFF7ECFF2046382132
:1039800001F0C0F8204610BD4FF0100300F00CB855
:103990004FF0200300F008B84FF0300300F004B8F7
:1039A0004FF0400300F000B8EFF308804FF004013F
:1039B00072460A4201D0EFF309809C46254B1968F4
:1039C00002680A60043142680A60043182680A6051
:1039D0000431C2680A600431F0C147460F60043107
:1039E0004F460F60043157460F6004315F460F6049
:1039F000043102690A60083142690A60043182694F
:103A00000A600431C2690A600431034620334FF46E
:103A10000076324200D0043375464FF0100635422E
:103A200000D148330C46103C2360EFF309820A6052
:103A30000431EFF308820A60043172460A600431EF
:103A4000EFF314820A606046024B196800F07AF8BE
:103A5000FEE7000060510110F0B52C4C2C4F85B0F2
:103A60000025264654F8252029463846013500F021
:103A70006BFA0D2DF6D1A36C0293636C0193236C4A
:103A80000093D4E90E23616B224C234800F05CFACA
:103A90002168224800F058FAE16AA26AA36AA06A83
:103AA000256BE76B000CCDE901570090C3F30723AA
:103AB000D2B21B4800F048FAA36A1D0603D5616B19
:103AC000184800F041FAA36A180403D5A16B164800
:103AD00000F03AFAF36C190712D5144800F034FAE2
:103AE000336DDA070FD5124800F02EFAF36C5B073E
:103AF0004CBF1048104805B0BDE8F04000F024BAB3
:103B00000E4800F021FA0E48EEE700BF244A0008F4
:103B1000F451011000ED00E0025201105152011069
:103B20005F520110AE520110BC520110CA52011076
:103B3000D95201100953011015530110F952011007
:103B4000E652011073B505460E461B4C0121D4E820
:103B50004F2FC4E8401FD2B262BB184800F0F4F9FE
:103B6000302D18D0402D1BD0202D1ED11448154DBE
:103B700000F0EAF9144800F0E7F9FFF76DFF134889
:103B800000F0E2F90023237000230093324610492D
:103B9000284600F059FB0F480F4D00F0D5F9E9E732
:103BA0000E480F4D00F0D0F9E4E70E480E4D00F03E
:103BB000CBF9DFE70025E7E7784A000864510110F8
:103BC0008D5101103E01FF80BA510110C551011005
:103BD000E45101109C5101103F01FF80A5510110DB
:103BE0004001FF80B05101103D01FF802DE9F041FF
:103BF0000C46F046154600F09BFBE4B154F8087CF7
:103C0000DDB128460BF012FB064648B1AF423A46FA
:103C1000214628BF2A460BF023FE20460BF00EFB60
:103C200043462A462146304600F03AFB00F090FB1E
:103C30003046BDE8F0812746E2E72E46F0E72DE961
:103C4000F0410D46164606FB05F7F04600F070FB06
:103C500038460BF0EBFA044618B13A4600210BF057
:103C6000FDFE434632462946204600F031FB00F077
:103C70006FFB2046BDE8F08170B50C461546064640
:103C800000F056FB1C48FEF7E7FB00F089FF04F14B
:103C9000080130460BF0DAFA184B38B39968184A25
:103CA000046021444260996019691A680131196100
:103CB000596822448A421A60996988BF5A6050F84C
:103CC000042C091B22F001020A4400F108069A6143
:103CD0000948FEF7C1FB00F081FF2A462146304625
:103CE00000F0CAFA00F034FB304670BD5A69013268
:103CF0005A610646ECE700BFD0340008B43400082F
:103D0000EFBEADDE00B572465DF804EBFFF7B4BF61
:103D100070B50C460646154600F00AFB1848FEF73B
:103D20009BFB00F03DFFDCB154F8042C154B9A428C
:103D300023D154E9033223F00101002344F8043C69
:103D4000114B1868801A1860186901381861986951
:103D50000244521A9A61A4F1080130460AF004FFA5
:103D60000748FEF779FB00F039FF2946204600F0AE
:103D7000C7FABDE8704000F0EBBA2146EDE700BF9E
:103D8000D0340008EFBEADDEB434000800B5724692
:103D90005DF804EBFFF7BCBF07B50B460092014688
:103DA0000022014800F050FA4401FF80034601223E
:103DB000D3E84F0FC3E8412FC0B20029F8D17047B4
:103DC000D0E85F3F5B18C0E8523F002AF8D198B2B4
:103DD0007047D0E84F3F5B1AC0E8423F002AF8D155
:103DE000D8B27047D0E85F3F5B1AC0E8523F002A64
:103DF000F8D198B2704738B5044600F0C1F8D4E95C
:103E0000004500F0D3F82046294638BD08B50379AF
:103E1000E3B10268531C04D13F220D490D48FFF75E
:103E2000BBFF0D4B1B68C2F307409B690E28D2B243
:103E3000D8BF03EBC013072A00DD01BE012000FA42
:103E400002F209B95A6008BD9A60FCE78160FAE79E
:103E5000904E0110CC4E0110105D00081FB500F00F
:103E60008FF81449144D01A8FFF7FFF8042401212D
:103E700001A8FFF7CBFF284600F057FE002101A85C
:103E8000FFF7C4FF284600F050FE013CEFD10B4E77
:103E90000424012101A8FFF7B9FF304600F045FED8
:103EA000002101A8FFF7B2FF304600F03EFE013CC2
:103EB000EFD1DBE705000100F0490200801A06009F
:103EC00073B5002201460446022000F083FC0D2653
:103ED00000F056F80022254614F8013B1BB900F00B
:103EE00065F802B070BD0A2B09D10D2A07D0012256
:103EF0000DF1070102208DF8076000F06BFC012234
:103F00002946022000F066FC14F8012CE3E70000CB
:103F100000B5A3B00B460246842101A80EF060FC58
:103F2000832806D9074B1A681B79CDF883208DF8B2
:103F30008730002802DD01A8FFF7C2FF23B05DF83B
:103F400004FB00BF215301100FB407B504A951F8B9
:103F5000040B0191FFF7DCFF03B05DF804EB04B044
:103F60007047EFF31080C04300F001007047EFF39B
:103F70000580003018BF01207047FFF71DB8000012
:103F800008B5FEF7EDFF064A1368591C04D13F221D
:103F900004490548FFF700FF0133136008BD00BF67
:103FA000F83400082653011050530110044A1368D6
:103FB00023B1013B13600BB9FEF7E4BF704700BFAC
:103FC000F834000808B50B48FFF7F0FE28B1FFF7FA
:103FD000D7FFBFF34F8F20BFFDE7FFF7C8FF08B142
:103FE000FFF73CFFFFF7BDFF0028F9D0012000F0EC
:103FF0004BFD00BF38350008F0B5284D8FB035EACD
:10400000200528BF05460E4617460021302202A88B
:104010000BF024FD224B01952B44012B01AC0396A0
:1040200005D9204B9D4202D0033B9D4232D1F36B18
:104030000293736B08931C4B5B690493DA6B0592D4
:104040005A6B1B6B06920793FFF79AFF174A136888
:104050000133012B136009D126460FCE144D0FC535
:104060000FCE0FC50FCE0FC533682B600FCC114D8F
:104070000FC50FCC0FC50FCC0FC523682B600E4B9F
:104080001B6813B1A5F130009847FFF78FFF0020A0
:104090000FB0F0BD02970894CDE700BF0101FF808B
:1040A000C2FE007F4001FF80A0230008FC3400080E
:1040B000043500083C350008003500082DE9FF41B3
:1040C000464C0E462168C1F34173032B0CBF4D4291
:1040D0008DB2C1F307438046174641482A46FFF791
:1040E00033FF6FF498731D44132D0FD8DFE805F0EC
:1040F0000A585B5E6167646A0E0E0E0E0E0E0E0E9F
:104100000E0E0E6DA1683748FFF71EFF4046FFF701
:10411000D7FE61683448FFF717FF4EB13348FFF709
:10412000CFFE3046FFF7CCFE39463148FFF70CFF93
:10413000A1683048FFF708FF23682F4A1A44012A74
:1041400005D92E4A934202D0033A934241D1A06846
:1041500020B1C06C80F00800C0F3C000E368002B01
:1041600039D05968264A002908BF1146E2690392EE
:10417000A26902926269019222690092214D224A4B
:10418000002818BF2A462148FFF7DEFE2168204894
:10419000FFF7DAFE1F4804B0BDE8F041FFF7D4BED8
:1041A000A1681D48B0E7A1681C48ADE7A1681C489C
:1041B000AAE7A1681B48A7E7A1681B48A4E7A16874
:1041C0001A48A1E7A1681A489EE71A48FFF7BCFE03
:1041D0009CE70020C2E70A49C8E700BF3C35000859
:1041E00096530110E75301108F540110A054011091
:1041F000A8540110AC540110C2FE007F4001FF80A2
:10420000815301108B530110E3510110C054011070
:10421000195501106E550110FD5301100D54011078
:104220001C5401102F540110435401105754011015
:10423000665401107C54011000207047014B18781F
:10424000C0B27047784A000880B50E461F46114636
:10425000084A0125D2E84F4FC2E8435FE4B23CB9B7
:104260007246FFF7C9FE029A39463046FFF726FF2D
:10427000FFF7A8FE784A000838B50B4606490D68D6
:10428000044635B105490978012902D801460020C4
:10429000A847204638BD00BF703500089C3500088F
:1042A00037B5044610461A46074B1D6845B1074B03
:1042B0001B78012B04D800900B4601202146A8470B
:1042C000204603B030BD00BF703500089C350008A3
:1042D00037B5044610461A46074B1D6845B1074BD3
:1042E0001B78012B04D800900B4602202146A847DA
:1042F000204603B030BD00BF703500089C35000873
:104300000A46094910B40C6803464CB107490978BC
:10431000012905D8A446002103205DF8044B60471D
:104320005DF8044B704700BF703500089C350008ED
:1043300008B50548FEF790F800F032FC034A137800
:104340000133137008BD00BF743500089C350008A8
:1043500008B5054A05481378013B1370FEF77CF851
:10436000BDE8084000F03ABC9C35000874350008F0
:1043700038B5064C23683BB9FEF79EFE044D014656
:104380002846FFF793F92560206838BDD835000826
:10439000A035000808B5836823B9054B1B6893F85E
:1043A000320008BDC06898470028F6D0F9E700BF82
:1043B000D835000837B5184D04462046FFF7EAFF08
:1043C00040BBD4E90023591C08BFB2F1FF3F02D023
:1043D0002868FFF72DFA01A8FFF75AF92046FFF7E2
:1043E000D9FFA0B9D4E90023013308BFB2F1FF3FE0
:1043F00007D100F083F801A8FFF750F9BFF36F8FE2
:10440000DBE72B6893F83130002BF2D1F3E701A8FA
:10441000FFF744F903B030BDD83500081FB5094C8B
:10442000CDE90001CDE90223FFF7A2FF6846FFF7BF
:10443000C1FF2068FFF75EF92068FFF7C9F904B0F3
:1044400010BD00BFD83500082DE9F0410F46904659
:104450000646FFF78DFFFFF76BF9084B1B6893F8D3
:104460003030C41A61F10005A01943463A4645F1BF
:104470000001FFF7D3FF001BBDE8F081D83500082D
:1044800010B5054C236813B9FEF716FE20602068AE
:10449000BDE81040FFF7BAB8E835000813B5074C7F
:1044A00001212046FFF78CFC034628B900902288A2
:1044B00003490448FFF7C8FE02B010BDDC35000810
:1044C000885501102301048013B5094C01212046B1
:1044D000FFF788FC4FF6FF73984206D1002322882D
:1044E000009304490448FFF7AFFE02B010BD00BFBF
:1044F000DC350008AA550110240104802DE9F04B99
:10450000FFF73EFDFFF7BCFF144B1B8806460F4626
:104510009BB29BB903F071FC0124FFF7B1FF8CB192
:104520000F4BD3E90045A41B65EB07050019694152
:10453000C3E90001BDE8F04BFFF738BD03F05AFCBA
:104540000024EAE7074CD4E90023921B63EB07033E
:1045500080185941C4E90001ECE700BFDC350008D0
:10456000E0350008F03500086FF01C0070476FF070
:104570001500704701207047002070477047000009
:10458000034B186818B14FF0FF3101F05BBC704766
:10459000804A0008024B186808B101F06BBC7047F4
:1045A000804A0008F8B5074E15460C468F18BC42E5
:1045B00005D014F8011B304603F0EAFBF7E7284664
:1045C000F8BD00BFD45B000838B58DB215F001040A
:1045D00005D0084803F0EEFB041C18BF0124EB06CD
:1045E00005D5044803F0EDFB08B144F01004204663
:1045F00038BD00BFD45B000810B50C462AB1044892
:1046000003F0AEFB2070012010BD1046FCE700BF98
:10461000D45B000838B5084B0360084B1B680446A0
:10462000154633B90648FFF727F82946044803F032
:1046300081FB204638BD00BFD0550110244300083F
:10464000D45B0008002070470020704708B50120A7
:1046500000F01AFA074A084913681844884289BFCB
:10466000064B10600C224FF0FF308CBF1A601846CA
:10467000704700BF9823000800740408385D0008E4
:10468000012070470120704708B500F01FFB08BDEE
:1046900008B500F023FB08BD10B50446037803F00D
:1046A0000303012B08D0FFF76BFF237803F003020D
:1046B000012A03D1FFF76EFF00200AE02AB140F281
:1046C0009D6204490448FFF767FB43F0020323702F
:1046D000012010BD595601108556011008B5037808
:1046E00003F00302022A05D040F2A66206490748F9
:1046F000FFF752FB23F0030343F001030370BDE80F
:104700000840FFF747BF00BF59560110A3560110DC
:104710003F2870B504462EDC184D55F820305A1C41
:1047200013D1022811DCFFF78FFF034658B920464A
:10473000FFF788FF034630B9114E3378BFF35B8F24
:10474000DB0704D50F4B45F82430184670BD3046C2
:10475000FFF7A2FF0028F5D04FF416520A49094886
:10476000FFF758FF3046FFF7B9FF084A08490548E8
:10477000FFF786FFE6E70023E7E700BF982200087F
:10478000F83500087C360008245601108C220008F9
:104790007D45001038B50546FFF7BAFF0B4B0024E6
:1047A00043F8254030B909F0D1FF092303604FF0E9
:1047B000FF3038BD03685B699847051E04DA09F0CD
:1047C000C5FF6D420560F2E72046F2E79822000837
:1047D000FFF7E0BF38B50C461546FFF799FF38B92B
:1047E00009F0B4FF092303604FF0FF34204638BDC1
:1047F00003682146DB682A469847041EF6DA09F06A
:10480000A5FF64420460EFE738B50C461546FFF794
:104810007FFF38B909F09AFF092303604FF0FF3496
:10482000204638BD036821469B682A469847041EE7
:10483000F6DA09F08BFF64420460EFE710B5FFF78A
:1048400067FF044628B909F081FF09230360204669
:1048500010BD0368DB699847041EF8DA09F076FF9B
:10486000644204600024F2E72DE9F04F85B005466C
:104870000E469146FFF77BFB044630B100230093C0
:104880002A4630493048FFF7DFFCFFF76AFB002873
:10489000F4D0B9F1000F09DA09F058FF16230360CC
:1048A0004FF0FF34204605B0BDE8F08F022D35DC17
:1048B0002846FFF7C3FF88B3244B06EB090213F821
:1048C00005A00292374698464FF00D0B029A974288
:1048D000A7EB060323D03A780A2A1CD1BAF10D0FB0
:1048E00019D09C420DDA1A1B311928460393FFF7A1
:1048F00071FF0028039BD3DB04449C42D2DB08F801
:1049000005A0012212492846FFF764FF0028C7DBF3
:10491000C8D008F805B017F801ABD7E70024A145C7
:10492000C0DDA9EB040231192846FFF753FF002828
:10493000B6DB24181FBF3619044B16F8012C5A5544
:10494000B0E700BF165701102F0101803C36000868
:1049500050570110FFF772BF7FB504460E4615464B
:10496000FFF705FB30B10023009322461D491E4886
:10497000FFF76AFCFFF7F5FA0028F4D0002D06DAFD
:1049800009F0E4FE162303604FF0FF301AE0022C1A
:1049900021DC2046FFF752FFE8B1144D01220DF152
:1049A0000F012046FFF730FF0028EDDB0AD09DF80D
:1049B0000F300D2B08D12A5D0A2A2B55EED00A2381
:1049C0003370012004B070BD0A2B02D12A5D0D2A7C
:1049D000F3E72B55F4E72A4631462046FFF714FF4C
:1049E000F0E700BFDA5601102F010180FC35000806
:1049F00038B50C461546FFF78BFE38B909F0A6FE10
:104A0000092303604FF0FF34204638BD0368214678
:104A10001B692A469847041EF6DA09F097FE64429D
:104A20000460EFE7FFF7E4BF10B5FFF771FE30B9A0
:104A300009F08CFE092303604FF0FF3010BD0368BE
:104A40009B699847041E04DA09F080FE6442046002
:104A5000F2E70020F2E7000008B50A4C236805469B
:104A6000986809F0B9FF2368D86809F0B5FF0120FC
:104A7000FFF7DAFF0220FFF7D7FF0DB1FFF7EEF9DE
:104A8000FEE700BF7425000808B5FFF7E5FF38B55D
:104A90000D46FFF73DFE044630B909F057FE0923E5
:104AA00003604FF0FF3038BD0368DB69984700288A
:104AB00014BF4FF400534FF400436B60236820464B
:104AC0009B6A984728610020EDE7FFF7E0BF0000F0
:104AD000084B13B57246014604461868FFF7CCF838
:104AE000034628B90090224603490448FFF7ACFB6F
:104AF00002B010BD742500083C5601101F01018052
:104B0000FFF7E6BF044B00B5724601465DF804EBC3
:104B10001868FFF7FDB800BF7425000810B5042120
:104B20000446FFF7EFFF204610BD70B50446FEF7C0
:104B300095FD0646FEF77BFD05463046FEF777FD00
:104B4000401BA042F9D370BD1FB5002303620D4B7B
:104B5000002908BF1946031D02931C230446039332
:104B600068460B230091019301F054F9206038B995
:104B7000FFF764FB20B9382203490448FFF70CF91A
:104B800004B010BD525701106C5701108C57011022
:104B900010B500210446FFF7D7FF204610BD0000E6
:104BA00037B504464FF0FF31006801F04BF9054678
:104BB00028B9236A01332362002003B030BDFFF718
:104BC0003DFB03460028F7D100932A4601490248DD
:104BD000FFF73AFBB05701101501028037B50546C3
:104BE000006801F047F9044628B92B6A013B2B62A3
:104BF000204603B030BDFFF721FB03460028F7D164
:104C00000093224601490248FFF71EFBC2570110DC
:104C10001701028010B50446006801F043F92046F0
:104C200010BD000008B5094B094A1A60094B9B1AD0
:104C3000094A1360094B0A4A1A600A4B9B1A0A4A2E
:104C4000136000F051F800F065F800BFEC36000882
:104C50000074040800780408E83600088436000868
:104C6000405D000800740408803600080E4838B51E
:104C70000E4B03600B251C240D4B4560C460836004
:104C800001F0C8F80B4B18600B480C4BC460C0E92E
:104C900000350B4B836001F0BDF80A4B1860BDE88E
:104CA00038400AF011BA00BFB8360008D6570110D4
:104CB000CC360008C836000888360008E3570110D3
:104CC0009C36000898360008FDF77EBB024B4FF07B
:104CD000FF31186801F0B6B8C8360008014B1868F3
:104CE00001F0C8B8C836000808B503F019FABDE8E5
:104CF000084000F00CB8704708B5FFF7B7FFFFF7A2
:104D0000FAFFFFF799FABDE80840FFF7DDBF00F0B2
:104D10003BBB000007B51748174B03600B234360EC
:104D20001C23164CC360164B8360164B23614FF453
:104D3000805363614423E360134BA3601823A36192
:104D4000124B236001F066F8114B224618600021D7
:104D5000104801F055FD034628B90F49009022463E
:104D60000E48FFF771FA00F027FB002300931A4664
:104D70000B49F5E7AC5A0008ED570110885A0008B6
:104D8000BC5A0008884A0008F0360008FD57011098
:104D9000804A0008F94C0010025801101D010180E2
:104DA0001E58011073B506460C461546FFF746FA25
:104DB00058B906342ABF064B064953F8241000237D
:104DC000009332462846FFF73FFA02B070BD00BF9D
:104DD000345801105459011008B500F0F1F80000E2
:104DE00007B5411E02460023042923D8DFE801F05D
:104DF000030A10161C0012491248009301220023D6
:104E0000FFF722FA0093022200230F490F48F7E729
:104E10000093032200230E490E48F1E70093042279
:104E200000230D490D48EBE70093052200230C49B0
:104E30000C48E5E700930C490C480023E0E700BF6D
:104E40004C580110250102806D5801102601028086
:104E50009258011027010280C758011028010280D2
:104E6000025901102A0102804259011000010280FA
:104E7000014A0146FFF796BF31010180014AFFF761
:104E800091BF00BF32010180014AFFF78BBF00BF15
:104E90003301018011F1110F02D0024AFFF782BFE6
:104EA000704700BF34010180014AFFF77BBF00BF9C
:104EB0003801018010B501F0BBFC034B1B6813B136
:104EC000BDE81040184710BD34370008024B987AEF
:104ED000003018BF01207047A023000808B500F07B
:104EE00081FA00220649FFF7AFFA431C04D1892258
:104EF00004490548FEF750FFBDE8084000F086BAB7
:104F0000CD4E0010395A01106F5A0110B0F57A7F5A
:104F100010B50C4604D0194919483422FEF73CFF5D
:104F2000FEF7E4FB0028174A14DB00F1604303F5A9
:104F30006143E02183F80013916800F1100341F808
:104F40002340926852F823309C420AD041220B49F8
:104F50000D48E3E700F00F03043B1344E02119760A
:104F6000EAE7002808DB4209012300F01F0003FAEA
:104F700000F0064B43F82200002010BD395A011002
:104F8000FF59011000ED00E00C5A011000E100E0B3
:104F900008B5FFF7EDF9BDE80840FEF791BC000049
:104FA000014B1868FEF7CCBCD8350008014B1868D7
:104FB000FEF794BCD835000808B5FEF797FB08BD8E
:104FC00008B5024C23689847FCE700BF9C23000803
:104FD0001EF0040F0CBFEFF30880EFF30980816926
:104FE00011F8021C91BB01B590E80F10E047BDE835
:104FF00000508CE80300244B93E80600914208BF60
:10500000704741B91EF0100F10D12049086820F0F8
:10501000010008600AE02CE9F00F1EF0100F08BF35
:105020002CED108AC1F838C081F822E01A6092F89D
:105030002210906B61F0FF0E1EF0100F08BFB0EC55
:10504000108AB0E8F00F80F309887047104A13689F
:105050009942FAD801B552F821C00FC8E047BDE81F
:105060000050CCF80000704701B501F03FF8BDE8F2
:105070000140EFF3098CBEE701B500F0FDFFBDE88C
:105080000140EFF3098CB6E7B423000834EF00E0E9
:10509000385B0110EFF310832BB9EFF31180003070
:1050A00018BF0120704701207047000038B5264C1A
:1050B000237A012B06D06FF00600FFF7D9FE4FF0E0
:1050C000FF3038BD01F07CFB10B94FF0FF30F4E742
:1050D0001E4A1F4D1F496868FF2382F8223092F84C
:1050E0002230D26863F0FF03DB4314BFB3FA83F3CB
:1050F0002023C3F12003C2F30222934298BF531C22
:10510000FE2202FA03F3114ADBB2D377FFF7FEFE69
:105110000028DAD1FFF750FF2061FFF739FF0E4872
:1051200001F038F901F09AF92B6813F0010F4FF0F4
:10513000020304D083F3148823720020C1E7032202
:1051400082F31488F8E700BFA023000800ED00E018
:10515000D05A011079500010BC23000870B54D4C96
:10516000217A012900F0878031B14FF0FF30FFF73D
:105170007FFE4FF0FF3070BD474D9C2204F10800C8
:105180000AF06CFCD5E90B61EB68E3652B8AA4F8A7
:1051900054303046AB68236400F04EF908B1C4F8CF
:1051A0008060D5E90561304600F046F9002864D0FA
:1051B0006667D5E90761304600F03EF9002860D007
:1051C000A667D5E90961304600F036F900285CD0C1
:1051D000E6676E6B3EB1D6E902233168304600F0D7
:1051E00096F9C4F88460AE6B3EB1D6E9022331680B
:1051F000304600F08CF9C4F88860EE6B3EB1D6E919
:1052000002233168304600F082F9C4F88C602E6CBD
:105210003EB1D6E902233168304600F078F9C4F88F
:1052200090606E6C3EB1D6E902233168304600F0E2
:105230006EF9C4F89460AE6C3EB1D6E902233168D1
:10524000304600F064F9C4F89860EE6C3EB1D6E9DF
:1052500002233168304600F05AF9C4F89C602D6D85
:105260003DB1D5E902232968284600F050F9C4F879
:10527000A0500123237200207DE7D4F880306367BB
:1052800097E7D4F88030A3679BE7D4F88030E367D2
:105290009FE700BFA0230008D05A011010B5134C9F
:1052A000237A022B05D06FF00700FFF7E1FD002005
:1052B00010BDFFF775FE01236372BFF34F8F0C4AD9
:1052C0005168C90042BF4FF000615160A372E36AA8
:1052D0004BB1D869636C1BB11B69984228BF184653
:1052E00004232372E4E74FF0FF30F3E7A023000824
:1052F00000ED00E0F8B5214C237A042B05463BD1A4
:10530000E3680344E360E36A53B106460127DA69C0
:10531000B24225D8DF61B61A01F06AF8E36A13BB1E
:10532000636C4BB101261869A8421FD81E61236D1A
:105330002D1A9847636CE3B902230020237201F011
:1053400097F800236372BFF34F8FA27A22B1A37242
:105350000B4B4FF080525A60BDE8F840FFF718BE83
:10536000961BDE61DCE7002ED1D1D9E7401B186126
:10537000E2E7002DD7D1DFE7F8BD00BFA02300088A
:1053800000ED00E07047000008B5FFF7FBFFEFF30A
:10539000058333B16FF00500FFF76AFD6FF005007C
:1053A00008BDFFF777FE0028F4D1DFF808C000DF62
:1053B000F6E700BF5D51001008B5EFF3058333B188
:1053C0006FF00500FFF754FD6FF0050008BDFFF713
:1053D00061FE0028F4D1DFF808C000DFF6E700BF67
:1053E000AD50001008B5EFF305832BB16FF0050049
:1053F000FFF73EFD002008BDFFF74CFE0028F5D169
:10540000DFF804C000DFF6E79D52001008B5024641
:10541000EFF305832BB16FF00500BDE80840FFF7FF
:1054200027BDFFF737FE0028F5D11046DFF804C08E
:1054300000DF08BDF552001010B588B140EA010345
:1054400013F007030DD117290DD9016008390C1885
:105450001022846042600B5081684A60C360012062
:1054600010BD0020FCE71846FAE770B530B371B301
:1054700032F003032BD10F3121F0070100F10805B1
:105480002E686C68731B24F003041B1B994205D91A
:1054900033683546002BF3D118460FE044680368A3
:1054A0000C4444601844083843689C4288BF4460F8
:1054B0006B6811431BB9696005F1080070BD23F0EA
:1054C0000303E818EE50416028600830F6E700203A
:1054D000F4E710B580B1C1B1A1F1080400F10803EF
:1054E0000022A34209D1596821F003044168091B35
:1054F00041603AB95A60012010BD19681A4621B1BD
:105500000B46EEE71B681360F5E70846F4E730B595
:10551000C0B189B1C2B1CBB10024C0E9014202FBE4
:1055200001F41D190160C36043610561184601392A
:1055300004D1A21A99500121084630BD8518056092
:105540002846F4E70146F7E71146F5E71946F3E781
:1055500010B50346A8B100F1140252E8000F10B9CB
:10556000BFF32F8F04E0016842E8001404B1F4E7B0
:1055700038B1043353E8002F511C43E8001404B140
:10558000F8E710BD30B5F0B1C3688B421BD8036992
:105590008B4218D900F114031A680A60BFF35F8FB9
:1055A00053E8002F0C689442F6D143E8001505B18A
:1055B000F2E7043050E8003F5A1E40E8002101B1F4
:1055C000F8E7002030BD6FF00300FBE7EFF3108336
:1055D0002BB9EFF31180003018BF01207047012074
:1055E0007047036B30B5E3B1CD780024DA78AA4276
:1055F0000FD31A46C1E901248AB19160A4B1616058
:10560000283050E8003F5A1C40E8002101B1F8E77B
:1056100030BD5A681C46002AECD01346E6E7C1624A
:10562000ECE7C1E90133C1620163E9E7D1E9013285
:1056300023B19A608A681AB153607047C262F9E771
:1056400003637047F8B5867804468EB3C568014693
:105650000026284605F10C07FFF7E8FF26703846BC
:10566000FFF790FFAB68002B48D03846FFF770FF7C
:105670000446002842D0284600F08CFE32460746F9
:10568000314600F021FF384600F0CAFE6A6A8168A0
:10569000074604F10C000AF0E3F8F9232370A67022
:1056A000FB68E37021462846BDE8F840FFF799BF44
:1056B0008568AB68002BF5D05B78832BF2D1284648
:1056C00000F068FE32463146074600F0FDFE3846DF
:1056D00000F0A6FE06466A6A806804F10C010AF032
:1056E000BFF8F3680BB1E2781A70002323702146EB
:1056F00005F10C00BDE8F840FFF744BFF8BD00001D
:105700002DE9F74F8946074600B131B96FF0030123
:105710000020FFF7C9FB002479E0CD1C25F003052C
:105720000C3514BFB5FA85F32023B0FA80F10B4491
:105730001F2BEBDD05FB00FAF2B19468D2F8008074
:10574000D2E904633CB1A10702D1D268332A05D85B
:105750006FF00801DCE7D268002AF9D13EB116F0FB
:10576000030B01D19A4556D96FF00901D0E7002B00
:10577000FAD11CB19B460CE090461646274BD3F855
:10578000A000E0B1FFF7E4FE0446A8B14FF0010B22
:105790003EBB224B019300225146D86FFFF765FEB6
:1057A0000646C0B9BBF1000F06D0019BD3F8A0009C
:1057B000214658B1FFF7E6FE6FF00401A8E7012289
:1057C0003421D3F88000FFF750FEDDE7D3F88000E6
:1057D000FFF77FFEF0E7524600210AF03FF94BF059
:1057E000020BFA2323700023A360C4E90993C4E9E0
:1057F0000B332A46334684F802B0C4F80480394695
:1058000004F10C00FFF783FE044B054A1A6720469B
:1058100003B0BDE8F08F002CE3D1AFE7A023000870
:10582000455600102DE9F0410C46174698460546AE
:1058300018B10378FA2B00D141B928466FF0030163
:10584000FFF732FB6FF00300BDE8F0818368C3B15E
:105850005B78832B15D100F09DFD012206460021C7
:1058600000F032FE304600F0DBFD06466A6A8068D2
:10587000214609F0F5FFF0680028E5D00770002008
:10588000E2E705F10C00FFF763FE064670B1214622
:105890006A6A0C3009F0E4FF0024F9233370B47015
:1058A000F77031462846FFF79CFEE8E7B8F1000F95
:1058B00010D04146932000F01BFF40B1074B284613
:1058C000596900F055FDEFF30983C3E902476FF012
:1058D0000100B9E76FF00200B6E700BFA02300089F
:1058E00010B500F1280353E8002F12B9BFF32F8F32
:1058F00004E0511E43E8001404B1F4E70AB90020A3
:1059000010BDC06A01230028F9D0821CD2E84F1FC5
:10591000C2E8443F04B1F9E711F0FF0FF0D080680E
:10592000F1E700002DE9F0410F4614469846054680
:1059300018B10378FA2B00D141B928466FF0030162
:10594000FFF7B2FA6FF00300BDE8F081FFF7C8FF80
:10595000064600283AD001462846FFF767FE6A6AE5
:1059600006F10C01384609F07BFF0CB1F378237087
:10597000002405F10C07347031463846FFF702FE6B
:10598000AB680BB90020DFE73846FFF7E1FD0646BC
:105990000028F7D0284600F0FDFC214607460122EA
:1059A00000F092FD384600F03BFD6A6A81680746C8
:1059B00006F10C0009F054FFF9233370B470FB6852
:1059C000F37031462846FFF70CFEDBE7B8F1000F15
:1059D00010D04146832000F08BFE40B1074B284693
:1059E000596900F0C5FCEFF30983C3E902746FF055
:1059F0000100A9E76FF00200A6E700BFA02300089E
:105A000010B50446EFF3058333B100206FF00501B4
:105A1000FFF74AFA002010BDFFF7D8FD0028F4D1A7
:105A20002046DFF808C000DFF5E700BF015700108F
:105A30002DE9F04106460F4690461C46EFF30583DC
:105A40004BB196B930466FF00301FFF72DFA6FF0B6
:105A50000300BDE8F081FFF7B9FD0028F1D1304621
:105A60002346DFF848C000DFF3E73378FA2BE9D1AB
:105A7000002FE7D0002CE5D106F10C00FFF768FD00
:105A8000054680B1726A39460C3009F0E9FEF92307
:105A900028462B70AC7085F80380C5E9017600F0CC
:105AA0006DFB2046D5E76FF00200D2E725580010C5
:105AB000F8B504460F4616461D46EFF3058343B17D
:105AC0008CB920466FF00301FFF7EEF96FF0030089
:105AD000F8BDFFF77BFD0028F2D120462B46DFF80A
:105AE00044C000DFF4E72378FA2BEAD1002FE8D096
:105AF000002DE6D12046FFF7F3FE054670B100F118
:105B00000C01626A384609F0ABFE0EB1EB783370D7
:105B10002846EC6000F032FB0020D9E76FF002006D
:105B2000D6E700BF25590010EFF310832BB9EFF330
:105B30001180003018BF012070470120704700001D
:105B400070B5A8B38468D0E900566CB114F00303B3
:105B500002D1C2681B2A1AD86FF008010020FFF793
:105B600093F90024204670BDC368002BF4D1124B7A
:105B7000D3F8940030B901221C21D3F88000FFF73C
:105B800074FC01E0FFF7E4FC044660B10123F52258
:105B9000A37000232270E6706560C4E90233C4E993
:105BA00004332376DEE76FF00401FFF76DF9D9E7E0
:105BB00005460646DBE700BFA0230008284B70B56A
:105BC0005D6904460E4635B96FF00701FFF75CF9D1
:105BD0004FF0FF3070BD10B10378F52B07D0204691
:105BE0006FF00301FFF750F96FF00300F2E7037E57
:105BF00053B9EA6AC560C0E9043202B11061EC62CF
:105C0000012323760020E5E7C278D1070DD5C168CE
:105C1000A9420AD1FF2B06D16FF00F01FFF734F92B
:105C20006FF00200D6E70133EBE7002EF8D09307C0
:105C30000AD5E06895F9203090F920209A4203DADD
:105C400080F8203000F0B9FB3146532000F050FDC1
:105C500018B12946204600F08BFB6FF00100B9E730
:105C6000A023000838B52E4B5A69044632B96FF0AC
:105C70000701FFF709F94FF0FF3038BD10B1037885
:105C8000F52B07D020466FF00301FFF7FDF86FF00A
:105C90000300F2E7037E33B96FF00E01FFF7F4F86B
:105CA0006FF00200E9E7C168914202D06FF00D0188
:105CB000F4E7013BDBB2037623BB43690BB1016917
:105CC0001961216901B34B61E3789B0705D592F90E
:105CD0002110D36AD3B982F82010A3687BB1204683
:105CE00000F058FB00220546114600F0EDFBEB6A80
:105CF0006361002323610123E560EC6223760020C9
:105D000000F0B6FB0020B8E7D362DDE7986820B169
:105D100090F920008142B8BF01465B69DAE700BF15
:105D2000A023000870B5044610B10378F52B07D006
:105D300020466FF00301FFF7A7F86FF0030070BD76
:105D4000037ED3B16369C0680BB122691A6122690D
:105D50001AB35361E3789B070BD590F92130C26ADF
:105D6000EAB990F920209A4203D080F8203000F060
:105D700024FBA068E0B900F07BFBA078002610F0BF
:105D800001002670DBD0124BD3F894502146C5B1E8
:105D90002846FFF7F7FB3046D1E7C362DAE79168A0
:105DA00021B191F920108B42B8BF0B465269D7E759
:105DB000204600F0EFFA00226FF0020100F084FBB1
:105DC000D7E7D3F88000FFF784FB2846B7E700BF8A
:105DD000A02300082DE9F0410446002601270CB954
:105DE000BDE8F081E378D4F814801B0710D5A368D0
:105DF00026766BB1204600F0CDFA0022054611460A
:105E000000F062FBEB6AE560C4E90463EC622776AC
:105E10004446E4E708B50246EFF3058333B10020BA
:105E20006FF00501FFF730F8002008BDFFF77CFE9A
:105E30000028F4D11046DFF808C000DFF5E700BF06
:105E4000415B001008B50246EFF305833BB11046F5
:105E50006FF00501FFF718F86FF0050008BDFFF7B8
:105E600063FE0028F3D11046DFF804C000DFF5E739
:105E7000BD5B001008B50246EFF305833BB1104649
:105E80006FF00501FFF700F86FF0050008BDFFF7A0
:105E90004BFE0028F3D11046DFF804C000DFF5E721
:105EA000655C001008B50246EFF305833BB1104670
:105EB0006FF00501FEF7E8FF6FF0050008BDFFF782
:105EC00033FE0028F3D11046DFF804C000DFF5E709
:105ED000255D0010EFF310832BB9EFF31180003034
:105EE00018BF012070470120704730B500F10C0247
:105EF000C189D2E85F3F994202D8BFF32F8F04E0F7
:105F00005C1CC2E8554F05B1F3E7C0899BB29842CB
:105F100094BF0020012030BD38B5054610B103788C
:105F2000F62B07D028466FF00301FEF7B3FF6FF0A2
:105F3000030038BD84683CB100F02CFA0122002136
:105F400000F0C2FA0020F4E7FFF7CFFF38B9284687
:105F50006FF01001FEF79EFF6FF00200E9E72046A8
:105F6000E7E7000070B5054610B10378F62B07D0BF
:105F700028466FF00301FEF78DFF6FF0030070BD40
:105F8000836863B1284600F005FA00226FF0020131
:105F900000F09AFAA8680028F4D100F069FAA8780D
:105FA000002610F001002E70E9D0084BD3F898407D
:105FB000294624B12046FFF7E5FA3046DFE7D3F85B
:105FC0008000FFF786FA2046D9E700BFA02300082B
:105FD00010B50446EFF3058343B184B920466FF052
:105FE0000301FEF757FF6FF0030010BDFFF772FFCC
:105FF0000028F2D12046DFF830C000DFF5E7237833
:10600000F62BEBD12046FFF770FF20B1204600F0C1
:10601000B5F80020E9E720466FF01001FEF73AFFDF
:106020006FF00200E1E700BF195F001008B50246FB
:10603000EFF305833BB110466FF00501FEF72AFF31
:106040006FF0050008BDFFF745FF0028F3D11046AB
:10605000DFF804C000DFF5E7655F001010B5D0E899
:106060005F3F5A1C914200D80022C0E8542F04B16F
:10607000F5E798B210BD000038B51B4CFEF796FF4F
:10608000E3680133E360236D03B1984700F0B0F992
:10609000002000F0EDF9236C2BB1A26BA1698A42BC
:1060A00002D0A163E36338BDE36B0BB1013BE36353
:1060B000E36B002BF7D1237A022BF4D1656A002D14
:1060C000F1D095F9201092F920309942EBD1284671
:1060D00000F069F9A06B00F083F9284600F0BEF9E2
:1060E000A563236CDEE700BFA023000870B5224C37
:1060F00004F1560504F15A06B4F85410D5E85F3F90
:1061000013B9BFF32F8F04E05A1EC5E8502F00B11A
:10611000F4E79BB25BB33046FFF7A0FFE36D53F8A3
:10612000200020B30378F13B082BE5D801A252F8F8
:1061300023F000BF59610010F96000105F6100108A
:10614000F9600010F96000106361001067610010D1
:10615000F96000106B610010236E9847CCE7636E06
:10616000FBE7A36EF9E7E36EF7E7236FF5E700209F
:10617000BDE8704000F07CB9A023000870B5164C53
:106180000546B4F8541004F15602D2E85F3F994234
:1061900002D8BFF32F8F04E0581CC2E8560F06B197
:1061A000F3E79BB2994205D829460220BDE870402A
:1061B000FEF716BE04F15800FFF750FFE36D43F8F9
:1061C0002050637A23B9054B4FF080525A6070BD5E
:1061D0000123A372FBE700BFA023000800ED00E04D
:1061E000EFF310832BB9EFF31180003018BF0120BB
:1061F000704701207047000010B50123094A437021
:1062000090F92010536A1C321BB193F920408C4244
:1062100005DCC0E90232906003B1D86010BD1A46B7
:106220009B68F1E7A0230008014B5869704700BF45
:10623000A023000808B5FEF73DFEDFF810C000DF20
:106240004FF0FF310020FEF719FEFEE75D670010FA
:10625000930710B502F0010422D400F1280384B1A1
:1062600053E8000F00EA01028A4203D0BFF32F8FE8
:10627000002005E020EA010243E8002404B1EFE732
:1062800010BD53E8000F084203D1BFF32F8F002049
:1062900005E020EA010243E8002404B1F1E7EFE75A
:1062A000806A01EA00031CB1994218BF0020E7E7A9
:1062B000002B08BF0020E3E710B5084A136B00214C
:1062C0003BB94FF0FF34C461C0E9043121B108612A
:1062D00010BD19461B69F3E71063F9E7A023000816
:1062E00010B5C469621CD0E904310AD103B1596107
:1062F00042691AB113610023436101E0064A136346
:1063000010BD1BB1DA6959612244DA614269002A81
:10631000F0D1014AD362F3E7A023000810B50023AF
:10632000038083789A07044608D513F0100F016B99
:106330000E4B0FD0D3F88400FFF724F9A378DB07C6
:1063400012D50A4BD3F88800214638B1BDE8104079
:10635000FFF718B9586FFFF7BCF8EFE7D3F88000E4
:10636000BDE81040FFF7B5B810BD00BFA02300087E
:1063700010B591F9202083681BB193F92040944215
:1063800005DAC1E90230816003B1D96010BD184659
:106390009B68F1E783689A68826002B1D06000224E
:1063A000DA6018467047C36833B182689A608268C1
:1063B00002B1D3600023C360704710B501460446A4
:1063C00064B12378F12B07D00846FFF7ECFF204695
:1063D000BDE81040FFF7CCBFE468F1E710BD000056
:1063E0000123014643700148FFF7C2BFBC230008E8
:1063F00038B50A4DEC6A84B1E369013BE36163B9E6
:106400002046FFF7D0FFFFF7EBFF246924B1E369D3
:10641000002BF5D000236361EC6238BDA023000897
:1064200090F82230826B13F0100F0CBF60202020F8
:1064300010447047074B596951B10B6B8A6B9342FB
:1064400003D21A68044B9A4202D00120FEF7C8BC5E
:10645000704700BFA0230008A52E5AE208B502230A
:106460004370024B9861FFF7E5FF08BDA0230008C9
:1064700010B5144B04461A7A5969A0B9022A1FD1E3
:106480005C6AECB194F9202091F920309A4217DD32
:106490002046FFF788FF0846FFF7AEFE2046BDE81E
:1064A0001040FFF7DBBF022A05D190F9202091F9B7
