:020000041000EA
:10000000002000082B0100100D0000008D010010E1
:1000100000000000000000000000000000000000E0
:100020000000000000000000000000008901001036
:10003000000000000000000089010010890100108C
:100040008901001089010010890100108901001048
:100050008901001089010010890100108901001038
:100060008901001089010010890100108901001028
:100070008901001089010010890100108901001018
:100080008901001089010010890100108901001008
:1000900089010010890100108901001089010010F8
:1000A00089010010890100108901001089010010E8
:1000B00089010010890100108901001089010010D8
:1000C00010B5064C2378002B07D1054B002B02D02E
:1000D000044800E000BF0123237010BDF8030008AE
:1000E00000000000F0140010044B10B5002B03D0EA
:1000F0000349044800E000BF10BDC04600000000F6
:10010000FC030008F01400100230800803D0013016
:100110000238FCD1C046C0467047EFF3108072B67B
:10012000704780F3108870477047FFF7FDFF72B685
:100130000F4C104DAC4209DA21686268A368043B99
:1001400002DBC858D050FAE70C34F3E70A490B4AEF
:100150000020521A02DD043A8850FCDC08480949A4
:100160000860BFF34F8F00F0CFFE00F079FEFEE78E
:10017000FC14001014150010F80300081406000801
:100180000000000808ED00E0FEE7FEE700B50420EF
:100190007146084202D0EFF3098001E0EFF30880D6
:1001A000043000F06BFCFEE7014B18607047C0465E
:1001B00010060008044B1B681A00AC3212881B6A38
:1001C0005043C0187047C046100600081D4B9842A7
:1001D0000FD010D840282FD005D8002830D01028B4
:1001E00028D019481EE0802828D080235B00984240
:1001F000F7D1144816E0154B984214D008D8A02324
:100200001B0698421CD0124B9842EAD1A0200BE06A
:10021000104B98420AD0104B984209D00F4B98428D
:10022000DFD10F487047A420C003FBE70D48F9E772
:100230000D48F7E70D48F5E70D48F3E70D48F1E7FE
:100240000020EFE706005200FF005200010000F01E
:10025000090000A0040000F0050000F0030000F019
:100260000100520002005200030052000100500041
:10027000020050000500520010B50020FFF79AFF61
:100280000A4B1C682300B0331B68C0180368002B9E
:100290000ADB074B1868FFF799FF012263689A6031
:1002A0009A68002AFCD110BD0248FCE7100600083D
:1002B00014040008020050000D4B10B5186000280F
:1002C00004D0FE235B42038000234380094B1B685C
:1002D0001A004C321278002A08D04D331B78002BBC
:1002E00004D002220449002000F0E0F810BDC0460E
:1002F00024040008100600084501000810B5024853
:10030000FFF7DAFF10BDC046B8030008064B1B68B4
:10031000B0331B68C3181B68002B03DA89B2416035
:10032000002070470148FCE71006000801008A0021
:100330000368002B04DA89B2C26081600020704734
:100340000048FCE701008A00064B1B68B0331B68BD
:10035000C3181B68002B03DAC36800200B607047CA
:100360000148FCE71006000801008A00024B1A68E9
:10037000002A00D11860704728040008F0B52C242A
:100380006043154C1F0024681D0A2018FF242540D7
:100390002740124C1B0C26680760346A4560836056
:1003A000AC36368877433F1907612F0080376D01DF
:1003B0007F01E71964190A4D47611F043B43641923
:1003C000236000238361059BC2610162002B01D081
:1003D0001B888381F0BDC046280400081006000871
:1003E00008100000F0B5836885B002AD2B80154B76
:1003F00002681B68066A9B8E476A9B18AB7043684D
:100400000095826AC16A040003930369C068FFF71C
:10041000B5FF00213B000A0000913000FFF7AEFF5E
:10042000216B280000F0DEFA0022AB5E002B06DB19
:100430001F2213401E3A9A401300034A136005B06E
:10044000F0BDC0461006000800E100E0F7B52C251D
:10045000134C684326686943341825690193711861
:10046000002D19D08869002818D12E68002E15DAC1
:100470006768012426004B689E40B44613689EB20C
:1004800063461B041E431660EA608C61BC40019BFE
:10049000A4B24B62AC60FEBD0248FCE70248FAE73A
:1004A0002804000804028A0007028A002C23434320
:1004B00006480068C018C369934204D9036A002043
:1004C0009200D15070470248FCE7C046280400085B
:1004D0000A028A0073B5002642690400D5680196B5
:1004E0002B0CB34221D01B0413601368194B006915
:1004F0001B68B0331B68C3181B68B34215DA01A927
:10050000FFF722FFB0420CD10198E26903681E0C8C
:10051000DBB29A4205D9226A9B009B58002B00D07F
:10052000984731002069FFF7F1FEADB2002D09D0E8
:1005300063691D6000251B68636AAB4205D098475C
:100540006562A56163691B6873BDA36A002BF8D05F
:100550009847F6E7100600082C2310B54343034ADA
:100560001068C018FFF7B6FF10BDC0462804000889
:10057000F8B5194B0F001B681A002E321278824210
:1005800027D9002925D01F250A68154021D1190037
:10059000AC310C88114E60431C6AD2080419290042
:1005A0007868346000F014FF29002000FFF7AEFEE9
:1005B0003A0029003068FFF7BBFE041E07D1010096
:1005C0003068FFF7A3FE03002000002B00D0044892
:1005D000F8BD0448FCE7C046100600082C040008DB
:1005E00001018A0003018A0010B5002A0DD10029FB
:1005F00014D10B4B1A681300AC331B885843136A91
:10060000C018084B1860080010BD002906D0064B22
:10061000196019005A60FFF7ABFFF5E70348F3E7ED
:10062000100600082C040008BC03000803018A001F
:10063000F7B5184F04003B680191DE6833688342C8
:1006400026D90025A94202D1FFF767FD05003868C9
:100650000368002B1ADA1F22012322409340640909
:100660007268A4001419226813420DD09A432260C4
:1006700000240021FFF74AFE019B002B02D1280035
:10068000FFF74FFD2000FEBD034CF2E7034CF3E7FC
:10069000034CF7E72C0400080201880003018800DE
:1006A00004018A000A4B1B68DB681A6882420DD974
:1006B00059681F23420918401E3B8340920050583E
:1006C0001840431E9841034BC01870470248FCE78E
:1006D0002C0400080001880004018A00A6220549B4
:1006E000D2008B580220DB439B0702D0012388589D
:1006F000184070470000264010B5FFF7EFFF0023B9
:10070000022801D1014B1B68180010BD30040008FD
:10071000094A83009B18D022920098580722104063
:10072000042807D1C022920098581F23034080203C
:10073000400018437047C0460000264010B5FFF740
:10074000E7FF03281CD005D8012816D013D9FFF7DE
:10075000D3FF11E01223FF33984213D01423FF3349
:10076000984217D0033B984217D10D4A0D4BD058F1
:10077000C00FC00300E00C4810BD0C4B1868FBE72D
:100780000B4BFBE70B4B186904231840F4D0802077
:100790000002F1E7024A084BE9E70020ECE7C04617
:1007A000000026400C05000000127A003404000806
:1007B0008C040008000027403C050000B023154AC7
:1007C000DB00D35810B59903DB01DB0F890BC37134
:1007D000114B0160D3580F24D904DB01DB0D0381D9
:1007E000B123DB00D358C90C8180190021408172EC
:1007F00019092140C172D9029B009B0F8373074BDB
:10080000C90CD35881815A05DB01520FDB0D82716F
:10081000038210BD00002640840500008C05000006
:1008200010B5104B421E1B683B331B78934216D900
:100830007F221F248030FF300B4B8000C3581A40AA
:100840000A701A0C2240180A8A701A012040E240ED
:10085000487000209B009B0FCA700B7110BD0348AD
:10086000FCE7C046100600080000264001004A00D0
:10087000F0B587B00400FFF761FF0600002C34D10B
:1008800001AD14222100280000F0A2FD2800FFF78E
:1008900095FFB023254ADB00D358002B03DAAC7B4D
:1008A000023C631E9C41EA79019F531E9A41A8882D
:1008B0000132002C16D00023190000F073FC002335
:1008C0000C0005003A003000190000F06BFCE60750
:1008D0006A0832436308801859412A00230000F057
:1008E00041FC0600300007B0F0BD114B1B683B33E4
:1008F0001B78A342F6D301AD05220021280000F0A9
:1009000067FD200029008034FFF78AFFFF34074B82
:10091000A400E3580024A34203DA2C79023C631EAE
:100920009C412F786878AA78C3E7C046000026402B
:1009300010060008E02210B50124094B8000920047
:10094000C018835880589B069B0F9C400F2318406B
:10095000FFF78EFF63081818210000F077FB10BD29
:1009600000002640144B30B51A68072413002833C2
:100970001B781F2B15D883081D00A5432C1E0FD1F3
:1009800003342040A040814012689B002032D318DD
:100990000A00FF2181401C686240114061401960DB
:1009A00030BD802320401B06184380239B01126822
:1009B000C91889008850F3E710060008064B9A68AA
:1009C0000300064810339B00824202D19858995088
:1009D0007047034AD058FBE700ED00E00000000834
:1009E00000000010F8B506000D0000283AD00023E2
:1009F000C05E002828DBB178FFF7B4FF0024FF2297
:100A0000032794460023F05E716883B21F40FF0005
:100A10006646BA4089013140D243B940002815DB0F
:100A2000114E83089B009B19C026B6009F593A407F
:100A3000114399510D4B9A680D4B9A4202D12900EE
:100A4000FFF7BCFF2000F8BD0A4CD8E70F26334063
:100A5000083B064E9B089B009B19DE693240114300
:100A6000D961E7E7034CEDE700E100E000ED00E0CD
:100A70000000000801005600FEE7000002680A4B73
:100A800010B51A6042685A6082689A60C268DA607B
:100A900002691A6142695A6182699A61C269DA61BE
:100AA000FFF7EAFF10BDC046D8030008B0235B057E
:100AB0009A89002A02D0988980B27047802040002D
:100AC000FBE700007FB5274B86000D00F458042992
:100AD00001D0012927D100200FE0A3682B420BD1C0
:100AE000E36829001A685B6802920193039302A8E5
:100AF000236898471C4B1C606469002C0BD01B4B6F
:100B00009842EAD1012DE8D1174B18481A68184BC2
:100B10009A5104B070BD012DFBD1144B9842F3D013
:100B2000134B9C51F5E7022906D10F4B1B68181E89
:100B3000EFD01C6903E01C006369002BFBD100208F
:100B4000002CE6D0A3682B4209D1E36829001A687B
:100B50005B6802920193039302A823689847246973
:100B6000EEE7C0467804000874040008FF00420065
:100B700060040008194B1B68190004C9C96F51189B
:100B80000968016219000831C96F5218126842627F
:100B90001A0041321278002A1FD09A68E032126897
:100BA000D2061AD5F222DB68D2019A580260F022EE
:100BB000D2019A5842600A4A9A588260094A9A5861
:100BC000C260094A9A580261084A9A584261084A22
:100BD0009A588261074A9B58C36170471006000803
:100BE00004780000087800000C78000010780000FD
:100BF0001478000018780000194B1B681A1D19683A
:100C0000D26F8A18016A11601A0008321968D26F0F
:100C10008A18416A11601A0041321278002A1ED0E7
:100C20009A68E0321268D20619D5F0224168DB6872
:100C3000D201995081680B4A9950C1680A4A99506B
:100C400001690A4A99504169094A99508169094ADA
:100C50009950C169084A99500168E8329950704723
:100C60001006000804780000087800000C780000E6
:100C7000107800001478000018780000B023F7B551
:100C80005B055A7807002126002A01D05E78F6B26B
:100C9000624D6B68002B00D07CE0FFF73EFA6B687A
:100CA0000090002B00D088E05D4C22681300AC332C
:100CB000198807234B43126A9B181A68002AFCDA2A
:100CC000DB68DA0020D51B0F1B0756480193FFF79E
:100CD00051FF5549212E00D074E090202268000178
:100CE000131DDC6F13681C1923680B40034323603A
:100CF000130008331268DB6FD3181A6811400843D9
:100D00001860484B019A13438022454E9205316882
:100D100013430A00AC321088072200244243096AB8
:100D20005218D36054605368FFF7C0FE80235B0005
:100D300098425CD1380000F05FFB32681300AC339E
:100D4000198807234B43126A9B181A68002AFCDA99
:100D5000DF68FB0003D538010009FFF74DFF334B77
:100D600032681F401300AC33198807234B43126AC3
:100D700000989B180022DF605A60FFF7D2F9002C20
:100D80000FD16B68002B03D008210120FFF79AFEDA
:100D90002000FEBD01210800FFF794FE041E00D1D3
:100DA0007BE76B68002B03D002210120FFF78AFE4E
:100DB0001F4B9C42ECD01F4CEAE704210120FFF7B7
:100DC00081FE71E7802220685200031DDC6F0368FA
:100DD0001C1923680B401343236003000833006889
:100DE000DB6FC318186801400A431A6089E732684C
:100DF0001300B0331B68126A9B181B68002B0ADBB8
:100E000004230D4A11690B431361012F01D030BF38
:100E100093E720BF91E7064C8FE7C04678040008AF
:100E20001006000838040008FF00FFFFFFFFFFDF87
:100E300005004200FF00420000ED00E0C0228020DB
:100E4000064952008B58C0059B009B0803438B50FA
:100E5000802388581B0603438B50704700002640B0
:100E600010B562B6034800F0C7F80020FFF706FF90
:100E7000FBE7C0460020001010B50020FFF76CFB18
:100E800010BD704710B50020FFF754FD002829D091
:100E9000154B1860154B1B681A1D1C68D36FE4189E
:100EA0002168090E013100F0D1F8114B186021685A
:100EB000090AC9B2013100F0C9F80E4B441E18608E
:100EC0000D49200000F0C2F8FA210C4B01301870D7
:100ED0008900200000F0BAF8094B01301860094B76
:100EE000C003186010BDC046C4000008100600080A
:100EF000C8000008C000000840420F00D4000008ED
:100F0000D0000008CC00000810B52148FFF74CF9CC
:100F1000B022E02130201F4CD200A35889005B0092
:100F20005B08A35063588343635080235B04A35042
:100F3000194B1A4AE250A02204339201E250FF22D8
:100F4000174BE250FFF77AFFC02201215200A3584D
:100F50008B43A350FFF795FFFFF794FF114B03203E
:100F60001A681300AC33198807234B43126A802197
:100F70009B180022DA605A600B4AFFF735FB0B48DA
:100F8000FFF7F4F90A48FFF72DFAFFF7B7F910BD9C
:100F90000814001000002640840500000100020033
:100FA0008C05000010060008C40300089004000827
:100FB000BC140010024BD86F032318407047C04682
:100FC0000400214010B5FFF7A8F80749074ACB6F86
:100FD0001A40074B1343CB67102306490A681A428D
:100FE000FCD0FFF79EF810BD04002140FCFF00007C
:100FF0000100FA058800214070B50F4C0600FFF78C
:101000008CF8E36F0500DB439B0701D1FFF7DAFFA4
:10101000B0230A4A9B00D650E36F094A09491A4097
:10102000094B1343E36710230A681A42FCD02800D7
:10103000FFF777F870BDC046040021400000214052
:10104000FCFF0000880021400300FA05002243084D
:101050008B4274D303098B425FD3030A8B4244D380
:10106000030B8B4228D3030C8B420DD3FF220902C2
:1010700012BA030C8B4202D31212090265D0030B81
:101080008B4219D300E0090AC30B8B4201D3CB0377
:10109000C01A5241830B8B4201D38B03C01A5241B9
:1010A000430B8B4201D34B03C01A5241030B8B42BB
:1010B00001D30B03C01A5241C30A8B4201D3CB02A6
:1010C000C01A5241830A8B4201D38B02C01A52418B
:1010D000430A8B4201D34B02C01A5241030A8B428E
:1010E00001D30B02C01A5241CDD2C3098B4201D3A6
:1010F000CB01C01A524183098B4201D38B01C01A24
:10110000524143098B4201D34B01C01A524103099A
:101110008B4201D30B01C01A5241C3088B4201D349
:10112000CB00C01A524183088B4201D38B00C01AF6
:10113000524143088B4201D34B00C01A5241411A1D
:1011400000D20146524110467047FFE701B500202A
:1011500000F006F802BDC0460029F7D076E77047D8
:101160007047C046002B11D1002A0FD1002900D1B1
:10117000002802D00021C943081C07B4024802A17C
:101180004018029003BDC046D9FFFFFF03B4684674
:1011900001B5029800F030F8019B9E4602B00CBCED
:1011A0007047C046F0B5CE46474615042D0C2E00BC
:1011B00080B50704140C3F0C9946030C7E435D4335
:1011C000674363437F19340CE4199C46A54203D955
:1011D00080235B029846C4444B4643435143250C4D
:1011E00036046544360C2404A4195B1959182000F0
:1011F0000CBC90469946F0BDF0B54F464646D646E3
:10120000C0B5040082B00D00914698468B422FD89D
:101210002CD04146484600F0CFF8290006002000B7
:1012200000F0CAF8331A9C46203B9A4600D576E077
:101230004B46524693401F004B46624693401E0069
:10124000AF4228D825D05346A41BBD41002B00DA5D
:101250007BE0002200230092019301235246934039
:101260000193012362469340009318E08242D0D953
:1012700000220023009201930A9B002B01D01C60E6
:101280005D600098019902B01CBC90469946A24648
:10129000F0BDA342D7D900220023009201936346F8
:1012A000002BE9D0FB079846414672080A437B08A9
:1012B00066460EE0AB4201D1A2420CD8A41A9D4171
:1012C000012024196D410021013E24184D41002EBA
:1012D00006D0AB42EED9013E24196D41002EF8D163
:1012E00000980199534600196941002B23DB2B001C
:1012F0005246D3402A006446E2401C005346150083
:10130000002B2DDB26005746BE40330026006746E3
:10131000BE403200801A994100900191ACE76246CC
:1013200020239B1A4A46DA406146130042468A400F
:1013300017001F4380E7624620239B1A2A00664657
:101340009A402300F3401343D4E762462023002150
:101350009B1A0022009101920122DA40019280E75B
:101360002023624626009B1ADE402F00B0466646C8
:10137000B74046463B003343C8E7C0461C21012323
:101380001B04984201D3000C10391B0A984201D368
:10139000000A08391B09984201D30009043902A246
:1013A000105C40187047C0460403020201010101AD
:1013B000000000000000000010B5002903D1FFF775
:1013C000DDFF203002E0081CFFF7D8FF10BDC0464B
:1013D00003001218934200D1704719700133F9E7E6
:1013E000F8B5C046F8BC08BC9E467047F8B5C04684
:1013F000F8BC08BC9E46704701B40248844601BC54
:10140000604700BFA1020008000021400000254005
:101410000000014000003440000024400000314042
:101420000000324000001F41000023400000114036
:10143000101010101010101010108000190055001E
:10144000F0000501053B04101C0101000FC0000065
:101450000004000001010101011D3A5778960008BF
:101460002000101208000000001F00000010000FF4
:10147000002000023F06080E00080009000A000BC9
:1014800024282C30340000001000000090000000E0
:1014900088000000080000008000000004F0000048
:1014A00000F00000400200002005A000D001000173
:1014B0008001A001200000001000000003000000D7
:1014C00001000000010000000000000005036000B2
:1014D0000400000001000000000000000100000006
:1014E0000604600008000000F0050008790E0010F6
:1014F0000000000004FDFF7F01000000000000105C
:1015000000000008C00000001C150010C00000080A
:10151000F8020000F80300081C02000000093D006A
:1015200000127A0000093D000000D007A00F000063
:1015300004000000E9000010C100001080B230B5C6
:10154000C00020D0104B07221C682300AC331B883E
:101550005A43236AD31819680029FCDA3E210B4B41
:10156000062519600A4B0B491960A3210A4BC900D3
:101570005D500A4958505858206A1218002050608F
:101580005A58002AFCDA30BD100600080401264033
:10159000080126401E1F0000000026401C05000018
:1015A00010B54378FF2B11D100F00CF90400032093
:1015B00000F028F9C3685A680123116819431160C3
:1015C00011681942FCD1200000F0E4F810BDF7B515
:1015D00000900020019100F015F93F4D06002B68A6
:1015E0001A004C33B03214681B780419002B5AD0FF
:1015F00000F0E0F8070003281BD000F0E3F8374ABA
:10160000374B0500D358002B3EDA364A0121300013
:1016100000F0F0F8002837D10198FFF78FFF009B0A
:10162000002B3ED02368002BFCDB00F0DBF804002D
:101630002BE0062000F0E6F82B68B0331B68C018DA
:101640000368002B02DA284C2000FEBD002000F0C9
:1016500099F8264B9842F6D00023254A19001268C3
:10166000012000F09FF80025A842ECD1002000F0F6
:1016700089F81E4A1F4B904203D09D42E3D00135AA
:10168000F4E79D42B9D1DEE7174C032F05D10121C4
:10169000002000F09FF80028F9D1280000F07AF827
:1016A000D2E7154CF1E700F08DF80E4A0500012154
:1016B000300000F09FF8002809D1009B002B08D0D3
:1016C0002368002BFCDB00F08DF80400E5E7064CF6
:1016D000E3E7094CE1E7C046100600080000264099
:1016E0001C050000140400080500520001018800D8
:1016F00024040008F049020001005000184BF7B51F
:101700001B68184A5C68042311690B4313610128A4
:1017100024D030BF2300FC331B69002B1DD1A32034
:10172000114B1249124AC0000F681E5815680195E6
:10173000104D0D6006251D503E2010600E483E35B0
:101740001D501D58002DFCDA0C48FC3420610F6040
:10175000A321C9005E50019B1360F7BD20BFD9E7EC
:101760001006000800ED00E00000264008012640B9
:10177000040126401E1F00001C050000AAAAAAAAF8
:101780000000000001B40248844601BC604700BF6D
:10179000A506001001B40248844601BC604700BFA2
:1017A0002301001001B40248844601BC604700BF19
:1017B0004D04001001B40248844601BC604700BFDC
:1017C000B50F001001B40248844601BC604700BF59
:1017D0001B01001001B40248844601BC604700BFF1
:1017E0003106001001B40248844601BC604700BFC6
:1017F0007902001001B40248844601BC604700BF72
:101800003103001001B40248844601BC604700BFA8
:10181000B501001000000000000000000000000002
:1018200000000000000000000000000000000000B8
:10200000007804087B8700100D000000C13F00101D
:10201000C93F0010D13F0010D93F00100000000060
:10202000000000000000000000000000315A001015
:10203000D987001000000000C95A0010D95A0010BA
:10204000D9870010D9870010D9870010D9870010D0
:10205000D9870010D9870010D9870010D9870010C0
:10206000D9870010D9870010D9870010D9870010B0
:10207000D9870010D9870010D9870010D9870010A0
:10228000D9870010D9870010D987001010B5054CE8
:10229000237833B9044B13B10448AFF30080012312
:1022A000237010BDA033000800000000949B0110B3
:1022B00008B5034B1BB103490348AFF3008008BDC9
:1022C00000000000A4330008949B0110154B002B64
:1022D00008BF134B9D46A3F5803A00218B460F465D
:1022E0001348144A121A0FF031FC0F4B002B00D088
:1022F00098470E4B002B00D0984700200021040087
:102300000D000D48002802D00C4802F047FE0EF0E8
:102310004FFF2000290003F0CBF903F0A5F800BF20
:1023200000000800007804080000000011560010AA
:10233000A0330008C45D00089D4F0010000000009D
:1023400008B50346144A1060002108469847034622
:1023500000BB114B1B680021084698470346C8B9CB
:102360000D4B1B68032105209847034690B90A4B83
:102370001B68002106209847034658B9064B1B6886
:1023800040219847034628B9034B1B6800211D20B4
:1023900098470346184608BDA44A000808B5074BED
:1023A0001B68442100209847034628B9034B1B684B
:1023B0003421012098470346184608BDA44A000866
:1023C00010B5054C2368002101209847236840215F
:1023D0000020984710BD00BFA44A000808B562B6A7
:1023E0000DF0A6FFFEE708B5282003F063F80023F0
:1023F000092B05DC4FF0FF3240F823200133F7E7CB
:1024000008BD0000012800D0704708B54FF6FF73E3
:10241000994200D008BDFFF7E6FF014B1860F9E7CD
:10242000BC33000808B54FF6FF710120FFF7EAFF43
:1024300008BD10B5044602F0BFF90121204606F0A0
:10244000E7FA02F0D1F910BD10B5044602F0B4F974
:102450000021204606F0DCFA02F0C6F910BD38B5BE
:1024600004460D4602F0A8F92946204606F0CAFAAD
:1024700002F0BAF938BD30B583B0436884680C30D7
:1024800003C802AA02E903005BB1009A5AB101999C
:102490004D10581911F0010F01D05B599A5821467F
:1024A000904703B030BD019911F0010FEFD1F8E76B
:1024B00038B5134B1C6834B1124B9C421BD12046DB
:1024C00003F080F838BD104B186818B14FF0FF3199
:1024D00004F0E8FA0A4B1C6834B10B4B186800286A
:1024E000EAD004F0FBFAE7E71D461C1D204603F086
:1024F00041F82C60F1E78B220449054802F024F8EA
:10250000C0330008C4330008084B0008E86E01100F
:10251000106F011010B50446064B0360806A08B1C5
:1025200001F096FB201D23690BB19B68984720465C
:1025300010BD00BF9C6F011010B50446084B03602E
:10254000806A08B101F084FB201D23690BB19B68F0
:1025500098474FF48A71204602F0C6FF204610BD0E
:102560009C6F011038B5134B1C6834B1124B9C4260
:102570001BD1204603F006F838BD104B186818B17F
:102580004FF0FF3104F08EFA0A4B1C6834B10B4B4C
:1025900018680028EAD004F0A1FAE7E71D461C1DE0
:1025A000204602F0E7FF2C60F1E78B220449054842
:1025B00001F0CAFFC0330008C4330008084B00080C
:1025C000E86E0110106F011010B5044603681B6817
:1025D0009847084B1B68A34207D0D4F8081104F1B0
:1025E000300006F0D7FA034B1C6023685B68204676
:1025F000984710BDE83300082DE9F04182B0044649
:102600000E4617461D469DF8208003681B689847B4
:102610002046FFF7D9FFB8F1000F13D10123009333
:102620002B463A46314604F1300006F0CBFA064616
:1026300023685B6820469847A81B18BF012002B09A
:10264000BDE8F0810023EAE770B588B016460024A3
:10265000059406940794012500950823224605A8B1
:1026600000F0FCFE02940394049400950823224693
:1026700031460DEB030000F0F1FE029BB3F1FF3F8A
:1026800037D0C3F307410E2938D8AA4A1268926995
:1026900002EBC112DBB2082B00D901BE126922FA8B
:1026A00003F303F00103002B00F05C81059BB3F101
:1026B000FF3F27D0C3F307410E2928D89D4A12684F
:1026C000926902EBC112DBB2082B00D901BE12697C
:1026D00022FA03F303F00103002B40F046810821A6
:1026E0000DEB0100FFF7BBFE02A8FFF7A2FE0024DE
:1026F0004BE058229049914801F026FF8D4A12681C
:102700009269C7E758228C498C4801F01DFF894A1D
:1027100012689269D7E73F228749884801F014FF81
:10272000844A1268916948E000230493052002F06E
:10273000ECFE022102A8FFF792FE9DF80C30F3B1E7
:10274000029BB3F1FF3F11D0C3F307420E2A12D808
:1027500078490968896901EBC211DBB2072B00D9FE
:1027600001BE012202FA03F38B600AE03F227249A4
:10277000724801F0E9FE6F4A12689169EDE70123A2
:102780000493052002F0C1FE0134092C1EDC08214F
:102790000DEB0100FFF763FE9DF80C30002BC3D05A
:1027A000029BB3F1FF3FB6D0C3F307420E2AB7D85E
:1027B00060490968896901EBC211DBB2072B00D9B6
:1027C00001BE012202FA03F34B60AFE705A8FFF751
:1027D00030FE9DF81830F3B1059BB3F1FF3F11D0E7
:1027E000C3F307420E2A12D852490968896901EBDE
:1027F000C211DBB2072B00D901BE012202FA03F39A
:102800004B600AE03F224C494C4801F09DFE494A8A
:1028100012689169EDE700230793052002F075FE29
:102820009DF80C30002B75D0029BB3F1FF3F68D0B0
:10283000C3F307420E2A69D83E490968896901EB4A
:10284000C211DBB2072B00D901BE012202FA03F349
:102850008B60052002F059FE9DF81830002B65D0E2
:10286000059BB3F1FF3F58D0C3F307420E2A59D856
:1028700030490968896901EBC211DBB2072B00D925
:1028800001BE012202FA03F38B60052002F03DFE37
:1028900005A8FFF7D9FD02A8FFF7D6FD029BB3F10B
:1028A000FF3F4DD0C3F307410E294ED8214A12688D
:1028B000926902EBC112DBB2082B00D901BE12698A
:1028C00022FA03F303F00103002B50D0059BB3F170
:1028D000FF3F3ED0C3F307410E293FD8154A126887
:1028E000926902EBC112DBB2082B00D901BE12695A
:1028F00022FA03F303F00103002B3BD0002008B0C1
:1029000070BD3F220C490D4801F01EFE094A1268B5
:10291000916996E7012304939BE73F220649074804
:1029200001F012FE034A12689169A6E7012307939A
:10293000ABE700BF985D0008346F0110746F0110A1
:1029400058220E490E4801F0FFFD0E4A12689269A6
:10295000B1E7582209490A4801F0F6FD094A126810
:102960009269C0E76FF00100C9E70020C7E76FF088
:102970000100C4E76FF00100C1E700BF346F011030
:10298000746F0110985D0008F0B585B004460E46DE
:1029900017460246204B42F8043B00234360536035
:1029A0009360D360029303936A4604A911E903007C
:1029B00082E80300A461E36104F1200585E80300D7
:1029C000164A6261A36284F82C3084F82D3004F139
:1029D0003005D822194628460FF0B8F8104BC4F835
:1029E00008312046FFF7BEFDC4F80C61C4F8107131
:1029F0003A4631462046FFF727FED4F81021D4F896
:102A00000C11284606F04AF8064B1C602046FFF7DA
:102A10004FFD204605B0F0BD9C6F011077240010DB
:102A2000A0860100E83300086FF01500704708B574
:102A300003681B69984708BD08B503689B699847F8
:102A400008BD08B503689B6A984708BD09B1002016
:102A500070476FF018007047012070476FF0150045
:102A600070476FF015007047704700002DE97848F7
:102A70000646D0E90245D0E908BC1BEB04024CEB4A
:102A8000050300F061F9736B2BB106F12800C368F0
:102A90001BB11B689847BDE8788840F23B22024989
:102AA000024801F051FD00BFAC6F0110D06F011062
:102AB00010B5044600F01AF9074B236000220023EA
:102AC000C4E908230023A362E36223636363012351
:102AD00084F83830204610BDE06F011030B585B065
:102AE000054601F069FE284600F039F96B6B13B119
:102AF00095F838302BBB05F128046B460022009274
:102B00005A609A60DA609C4212D0E36813B19B6805
:102B10002046984764B10023AB626360A360E36022
:102B2000039B1BB15B68694620469847039BE360A3
:102B3000039B13B19B686846984701F055FE05B0AA
:102B400030BD02F05BF9D6E738B504460546074BC1
:102B500045F8283BFFF7C2FF636B13B19B6828461B
:102B60009847204600F002F9204638BDE06F01107A
:102B700038B504460546094B45F8283BFFF7AEFF3C
:102B8000636B13B19B6828469847204600F0EEF827
:102B90004021204602F0A8FC204638BDE06F01101D
:102BA000D0B5044616461F4601F006FE204600F04A
:102BB000D6F8C4E90867A06901F00BF8821941EB67
:102BC0000703204600F0C0F801F00EFED0BD2DE94D
:102BD000704305460E469046994601F0EDFD6B6B3D
:102BE000FBB105F12804B44212D0E36813B19B682D
:102BF0002046984764B10023AB626360A360E36042
:102C0000F3681BB15B68314620469847F368E36080
:102C100042464B462846FFF7C3FF01F0E5FDBDE8FD
:102C2000708395F83830002BDBD002F0CDF8D8E770
:102C300030B585B0054600F12804002300930193C8
:102C400002930393E3681BB15B682146684698478B
:102C5000E36803932846FFF741FF039B4BB11B68D2
:102C600068469847039B13B19B686846984705B030
:102C700030BD40F23B220249024801F065FC00BF32
:102C8000AC6F0110D06F011038B504460546074BF4
:102C900045F8283BFFF722FF636B13B19B6828467A
:102CA0009847204600F062F8204638BDE06F0110DA
:102CB00038B504460546094B45F8283BFFF70EFF9B
:102CC000636B13B19B6828469847204600F04EF886
:102CD0004021204602F008FC204638BDE06F01107C
:102CE00008B503689B68984708BD000010B5044606
:102CF000084B036000220023C0E902230023036184
:102D0000436100F08FFFA061034900F0D7FE204629
:102D100010BD00BF08700110E12C001010B5044672
:102D20000846074B236000220023C4E90223002346
:102D300023616361A161034900F0C0FE204610BD1C
:102D400008700110E12C001000B583B001468069C5
:102D50000091083100F0F4FE03B05DF804FB08B503
:102D600000F10801806900F01AFF08BD10B50446A3
:102D7000024B0360FFF7F3FF204610BD08700110FF
:102D800008B503681B6901220021984708BD08B5F2
:102D900003681B6900221146984708BD30B44FF400
:102DA0007A7404FB01F1144DA5FB01C1C1F34F215D
:102DB000018004FB02F2A5FB0242C2F34F224280D3
:102DC00083809DF808308371032901D80423038090
:102DD0000388B3F5804F02D94FF480430380032A60
:102DE00001D8042343804388B3F5804F02D94FF4C0
:102DF0008043438030BC70475917B7D108B503688A
:102E00000BB10846984708BD012800D070474FF61F
:102E1000FF739942FAD1044B00221A605A609A60FB
:102E20001A61024ADA60F1E7EC330008FD2D001068
:102E300008B54FF6FF710120FFF7E6FF08BD00005F
:102E4000012800D070474FF6FF739942FAD1084A23
:102E5000002302F8013B0F23002B04DB002102F8C2
:102E6000011B013BF8E7024B42F602125A82E9E7E6
:102E70000034000808B54FF6FF710120FFF7E0FFAE
:102E800008BD0000012800D070474FF6FF7399423B
:102E9000FAD100B583B0002300934FF4804211466D
:102EA0000248FFF77BFF03B05DF804FB1434000811
:102EB00008B54FF6FF710120FFF7E4FF08BD10B51C
:102EC000044602F09DFB204610BD0000012800D002
:102ED00070474FF6FF739942FAD110B5074C204660
:102EE00002F048FB002384F82430A362E3622363EA
:102EF000034A0449204602F04FF810BD1C34000874
:102F00008C220008BF2E001008B54FF6FF7101207B
:102F1000FFF7DCFF08BD10B5034684684268511016
:102F2000601812F0010F02D11B68984710BD62585B
:102F30001B68D358F9E7034610B107C983E80700B7
:102F40007047704738B504460D4601F035FC94F8DB
:102F500057304BB994F8563033B994F854301BB904
:102F6000A36CDB6898470DE004F10800FFF7B6FD9D
:102F7000002384F8553084F8563084F857300DB16A
:102F80002046A84701F030FC38BD10B5044601F0DA
:102F900013FCA36C9B68984701F026FC10BD10B58C
:102FA000044601F009FCA36CDB68984701F01CFCA7
:102FB00010BD10B5044601F0FFFB012384F8573023
:102FC000A36C5B69984701F00FFC10BD10B5044677
:102FD00001F0F2FBA36CDB699847044601F004FCA6
:102FE000204610BD10B5044601F0E2FB18B304F111
:102FF0000800FFF773FD002384F8553084F856303D
:1030000084F85730012284F85820E365236663660C
:10301000A36CDB69984742681F2A11D801239340AB
:10302000013BA366026802F5742303F23F23B3FB5E
:10303000F2F3E36610BDC2220349044801F084FAAA
:103040004FF0FF33A366EDE7207001104C700110C4
:10305000F8B504460E4617461D460830FFF728FD12
:103060000B4BA3603368A3640135E564069B013311
:103070002365002384F8543001F09EFB27607368B9
:1030800063602046FFF7AEFF01F0AEFB2046F8BDBF
:10309000F46F011010B5044601F08EFB2046FFF7D7
:1030A000A1FFA36C1B68984701F09EFB10BD10B5F3
:1030B000044601F081FB2046FFF794FFA36C9B6957
:1030C000984701F091FB10BD70B505460E4601F022
:1030D0006FFB60B195F856403CB1286EEA6D9042A6
:1030E00003D0314600F0E8FB30B1204670BDF0223D
:1030F0000249034801F028FA0024F6E72070011085
:103100004C70011038B5044601F056FBA36C5B68A7
:103110009847054694F854301BB101F065FB2846EA
:1031200038BD01462046FFF7CFFF0028F5D0A36C3D
:103130005B699847F1E7000038B505460C4601F099
:1031400037FB20B1E86E04FB00F0043038BDFC22F0
:103150000149024801F0F8F9207001104C7001108B
:1031600070B48BB004460E46694681E80C0003AD8E
:1031700003C985E8090005AA82E8090007AD85E8CA
:1031800009000996002323606360A360E36024B113
:103190000AAB13E9070084E80700034BE36020460D
:1031A0000BB070BC704700BF1470011070B58CB0CC
:1031B00004460D4601F0FCFA00283DD094F8583042
:1031C0004BB9636EEB1AA26E1340E26C934202D3CA
:1031D000012384F85830E06D451BA36E1D40266D19
:1031E000B5422CBF0022012294F8583053BB94F80A
:1031F0005530002B3BD1B54200D22E46324B0493C2
:103200000025059504AB0CCB21466846FFF7A8FFC7
:1032100031462046FFF790FF02462B46694604F1EF
:103220000800FFF7D4FC039B13B19B6868469847DE
:10323000012384F855301AE04FF482722349244860
:1032400001F082F9B5421AD3A36C1B699847A36CAD
:103250005B6898476066002384F85830E36D181A5D
:10326000A36E1840854204D2A36C5B6998470CB0EA
:1032700070BD226D824294BF002201220546002AC1
:10328000F5D0266DAE4200D92E460F4B0A9300258D
:103290000B950CAB13E90C00214606A8FFF760FF65
:1032A00031462046FFF748FF02462B4606A904F1A7
:1032B0000800FFF78CFC099B13B19B6806A8984790
:1032C000012384F85530D2E7173300102070011025
:1032D0004C70011038B504460D4601F06DFAA36C30
:1032E0005B6898472066E565012384F8563094F8BA
:1032F00054305BB1A36C1B6928469847236E636604
:10330000002384F8583001F06FFA38BD014620469A
:10331000FFF74CFFF7E738B5044601F04DFA0023FC
:1033200084F85530A36C5B6898470546206EE26DC3
:10333000904205D1A36C5B69984701F055FA38BDFE
:10334000294600F0B9FA0028F4D129462046FFF7B3
:103350002DFFF2E7EFF3108313F0010F0CBF0120F4
:103360000020704708B5FFF7F5FF72B6044B1B78D5
:1033700023B9044B1870024B01221A7008BD00BF1C
:10338000513400085034000808B5FFF7E3FF38B99E
:10339000064B00221A70064B1B7803B162B608BDBB
:1033A00036220449044801F0CFF800BF5134000828
:1033B000503400086C70011098700110014B18789F
:1033C000704700BF5134000870B504460E461546DC
:1033D00005F0F8FAB6F1FF3F32D023793BB323680A
:1033E000B3F1FF3F15D0003518BF0125C3F30741E6
:1033F0000E2913D8134A1268926902EBC112DBB28C
:10340000072B00D901BE6DB1012101FA03F39360CE
:103410000EE03F220C490D4801F096F8094A126867
:103420009269ECE7012101FA03F3536000E0A56023
:103430000121204605F0ECFA0821204605F0E2FAC9
:1034400070BD00BF985D0008346F0110746F0110EB
:1034500008B50022FFF7B8FF08BD000070B50446AC
:103460000D461E46002A3DD105F0ACFAB5F1FF3FEE
:1034700007D00021204605F0CBFA3146204605F062
:10348000C1FAB5F1FF3F67D0237943B32368B3F1A5
:10349000FF3F16D0049A101C18BF0120C3F3074148
:1034A0000E2913D82D4A1268926902EBC112DBB2C1
:1034B000072B00D901BE68B1012101FA03F3936023
:1034C0004AE03F222649274801F03EF8234A126885
:1034D0009269ECE7012101FA03F353603CE0049B9D
:1034E000A36039E005F06EFAB5F1FF3F34D02379DF
:1034F00043B32368B3F1FF3F16D0049A101C18BFE2
:103500000120C3F307410E2913D8144A12689269A7
:1035100002EBC112DBB2072B00D901BE68B1012159
:1035200001FA03F393600FE03F220D490D4801F0CB
:103530000BF80A4A12689269ECE7012101FA03F3D9
:10354000536001E0049BA3600121204605F060FA6E
:103550003146204605F056FA70BD00BF985D000860
:10356000346F0110746F011008B5024800F064F860
:1035700008BD00BFB470011008B5024B186800F018
:1035800045F808BD9022000808B5024B1868FFF7FF
:103590001DFD08BD9834000808B5024B1868FFF7F8
:1035A00086FD08BD9834000808B5024B1868FFF77F
:1035B00000FD08BD9834000808B50146024B1868A4
:1035C000FFF788FE08BD00BF9834000808B5024B1D
:1035D0001868FFF7E4FC08BD9834000808B5024BF2
:1035E0001868FFF7D2FC08BD9834000808B5024BF4
:1035F0001868FFF787FD08BD9834000808B5024B2E
:103600001868FFF747FD08BD9834000810B5044658
:1036100001F0D2F8064B1B783BB12146054B1868E8
:10362000FFF790FC01F0E0F810BDFFF79DFFF4E715
:10363000103500089834000830B583B0044601F016
:10364000BBF80B4B1B782BB101F0CEF8094B186877
:1036500003B030BD084D03230093084A2146284695
:10366000FFF7F6FC034B1D60014B01221A70EBE7DC
:103670001035000898340008A0340008E0700110EC
:1036800043681960704700002DE9F84F446894F8CA
:103690003A30002B70D1054603685B6898476B6829
:1036A0001B6A834268D0216A411AE36819400A46BE
:1036B00000232062A5685348854256D094F83BC049
:1036C000BCF1000F5AD04E01CF0E761A67EB0307FC
:1036D000790241EAD6517002861841EB03074FEA9E
:1036E000871949EA96694FEA8618B8EB060069EB34
:1036F000070110EB020941EB030ACCF12007ACF102
:10370000200629FA0CF20AFA07F73A432AFA06F6D3
:1037100032432AFA0CF3ACF12008CCF1200E03FA64
:103720000CF102FA08F841EA080122FA0EFE41EA19
:103730000E0102FA0CF0B9EB00066AEB0107D4E9BE
:103740000A0110EB060841EB0709C4E90A890027C2
:10375000B94508BFA84508D3013243F10003B8EBCF
:10376000050069EB0701C4E90A01D4E90C018518D9
:1037700041EB0306C4E90C56BDE8F88F4E01CF0EAD
:10378000761A67EB0307790241EAD651700210EB13
:10379000020A41EB030B4FEA8B1141EA9A614FEAAF
:1037A0008A10B0EB0A0061EB0B0110EB020A41EB4F
:1037B000030B4FF000092A464B465046594613F07A
:1037C00007FA02460B46A5FB000105FB0311BAEB05
:1037D00000066BEB0107D4E90A0110EB060A41EB86
:1037E000070BC4E90AABCB4508BFAA45BDD30132DC
:1037F00043F10003BAEB05006BEB0901C4E90A01D0
:10380000B3E700BF40420F002DE9F84F4468D4E908
:103810000C01101A63EB0101804689462569D4E941
:103820000601494508BF40453AD3A1682048814276
:1038300020D094F83B600EB3A6F1200CC6F120070F
:1038400009FA06FB08FA0CFC4BEA0C0B28FA07F7FE
:103850004BEA070B08FA06FA154A0023154E002713
:103860001AEB06004BEB070113F0B2F9854217D3B0
:10387000054615E0454513D3454611E0A1FB086711
:1038800001FB09770A4A0023DFF828804FF000097E
:1038900018EB060049EB070113F09AF9854205D2AF
:1038A000206A2844E3681840BDE8F88F0546F7E72A
:1038B00040420F003F420F00824205D98A4209D997
:1038C000884209D901207047884207D98A4207D91E
:1038D000002070470120704700207047002070478B
:1038E0000120704770B5456895F83A3013B995F8DE
:1038F000393003B170BD0446FFF7C6FE62685368F5
:1039000043B9286A2B691844EA6823681B69104088
:103910009847EFE7D2E90C01D3E90023994208BFA9
:10392000904203D323685B699847E3E72046FFF79B
:103930006BFF06462B6A834210D023681B699847A9
:1039400023685B68984732460146286AFFF7B4FF50
:103950000028CFD023685B699847CBE740F21B1261
:103960000149024800F0F0FD5C7101108071011006
:10397000436893F83820002A40F0968093F83A3054
:10398000002B40F091802DE9F04F85B0054603688B
:103990001B6898472B68DB699847066846B11F2467
:1039A0006CB10123A340B34209D0013CE4B2F7E774
:1039B0000022009213463D493D4801F08BF8D0F8B3
:1039C00004A0AAF104031C2B67D807279F404FF0DF
:1039D00000097A01FB0ED21B63EB0903590241EA8D
:1039E000D2515002C21941EB09034FEA831C4CEA41
:1039F000926C4FEA821BBBEB02006CEB030110EBF5
:103A0000070B41EB090C324600231BEB06084CEB7D
:103A1000030918F1FF3049F1FF3113F0D9F8CDE96E
:103A200002016B684FF00008C3F800806B68C3F8B0
:103A300004802B685B68D5F804909847C9F820008B
:103A40006B6800200021C3E90A016B689E606B6807
:103A500083F83B40012404FA0AFA6A680AF1FF334A
:103A6000D3606B681F616B68DDE90267C3E90667B5
:103A70006B68C3E90C016B6883F839806B6883F865
:103A80003A806B6883F838402846FFF7FDFD2846EA
:103A9000FFF728FF05B0BDE8F08F00220092134623
:103AA0000449054801F016F8704700BF0471011081
:103AB0000E010480207101100501048038B5044610
:103AC0000D46FFF755FF00F077FE29462046FFF729
:103AD000D7FD00F089FE38BD70B5044600F06CFEDD
:103AE0002368DB689847636893F83A20DAB90122C3
:103AF00083F8392063685B68C3B12046FFF7C4FDD3
:103B000065686E68D6E90023D5E90C01994208BFC3
:103B100090420BD3F3686B6063681B68002BE9D09D
:103B2000B0689847E6E700F05FFE08E063680022AF
:103B300083F839202046FFF7D5FE00F055FE70BD12
:103B4000F8B507460E4614461D4600F035FE3846C9
:103B5000FFF79AFDC6E90045069BB3607B685B688A
:103B6000002243B1D3E900018D4208BF844202D351
:103B70001A46DB68F5E7F36072B1D66032B17B6854
:103B8000D3E90C23AB4208BFA24202D33846FFF769
:103B9000A9FE00F029FEF8BD7B685E60EEE738B54F
:103BA00005460C4600F008FE6A685368A34205D03B
:103BB00063B1DA68A24207D01346F9E7E3685360BD
:103BC0002846FFF78FFE01E0E268DA6000F00CFEA5
:103BD00038BD38B50446FFF7CBFE00F0EDFD2046BA
:103BE000FFF752FD6368D3E90C4500F0FDFD204668
:103BF000294638BD08B5FFF7ECFF08BD08B5034BF3
:103C000000221A7005F0DEFA08BD00BFA84A0008BD
:103C100008B505F009FA024B01221A7008BD00BF71
:103C2000A84A000800487047A471011008B5034B6A
:103C30001B680BB10248984708BD00BF94220008DA
:103C4000A471011008B5CA68496805F0ADF808BD4F
:103C500008B5024B1B6803B1984708BD58350008EA
:103C600010B5044600F0A8FD204610BD10B504466E
:103C700000F0BAFD204610BD0020704710B5044684
:103C8000FFF74CF80C4B2360A069FFF7A2FFC4E9D3
:103C9000080100220023C4E90A23002384F83030FD
:103CA00084F8313084F8323084F8333084F834309A
:103CB00084F83530204610BDD87101104FF0FF3028
:103CC0007047000010B590F834305BB90446FFF738
:103CD00046F8002384F8313084F8323094F83530D7
:103CE0002BB910BD91220549054800F02DFC002399
:103CF00084F8353001F082F8F3E700BFE471011079
:103D00000C72011008B5283000F02AFC08BD4DF8EF
:103D100004BDD0E90A2312F1010B43F1000CC0E904
:103D20000ABCD0E9082312F57A7B43F1000CC0E904
:103D300008BC5DF804BB70472DE90048D0E908BC19
:103D40001BF57A724CF10003FEF7FEFFBDE8008818
:103D500038B504468069FFF73CFFD4E90823821A8E
:103D600061EB0303002B08BFB2F57A7F18D314462A
:103D70001D46002B08BFB2F5FA6F14D3012B08BF04
:103D8000002A07D34FF47A7200232046294612F006
:103D90001FFF07E0054BA3FB02308009002101E073
:103DA0000020014638BD01200021FBE7D34D621001
:103DB0002DE9F04B90F8343093BB044690F8313045
:103DC00073BBFFF7C5FF80468946002384F8303077
:103DD0004D01420145EAD063121A63EB01039D00D5
:103DE00045EA9275960016EB080B45EB090C4FEA75
:103DF000CC0545EA5B754FEACB06B346D4E90867C4
:103E00001BEB060245EB0703C4E90823D4E90A23A8
:103E100018EB020049EB0301C4E90A01BDE8F08B8D
:103E2000E1220249024800F08FFB00BFE47101105B
:103E3000187201102DE9F0481F4690F8343033B95C
:103E40000446164690F8313033B1BDE8F0885B2265
:103E50001F49204800F078FBFFF7AAFFB94208BFCE
:103E6000B0422AD27901720141EAD663921B63EB18
:103E70000703990041EA92719000821941EB070310
:103E8000D90041EA5271D00006460D46012384F85C
:103E90003130002384F8323094F8353023B9A369E7
:103EA0001B6893F8203063B1002384F83330324626
:103EB0002B462046FEF748FFC7E7012384F832303F
:103EC000C3E7012384F8353000F07EFFECE700BF44
:103ED000E47101100C720110024B4FF080625A60C5
:103EE000704700BF00ED00E010B50446012380F8E4
:103EF000343090F830301BB92046FFF71DFF10BD5D
:103F0000FFF7EAFFF8E708B53030D0E84F3F013B54
:103F1000C0E8423F002AF8D113F0FF0F00D108BDDE
:103F2000FFF7DAFFFBE790F831304BB1002380F860
:103F3000313090F8333033B9012380F83230704794
:103F400090F8343003B9704710B5044690F830301B
:103F5000013380F83030FFF7BFFF2046FFF7D7FE70
:103F60002046FFF7E9FE10BD024B4FF000725A6089
:103F7000704700BF00ED00E010B50446FEF7EFFE0D
:103F8000002384F83430FFF7EFFF10BD10B504466E
:103F9000054B0360FFF7F0FF2046FFF793FE204636
:103FA000FEF7E4FE204610BDD871011010B504469E
:103FB000FFF7ECFF3821204601F096FA204610BDAD
:103FC0004FF0100300F00CB84FF0200300F008B8D9
:103FD0004FF0300300F004B84FF0400300F000B899
:103FE000EFF308804FF0040172460A4201D0EFF36C
:103FF00009809C46254B196802680A6004314268B2
:104000000A60043182680A600431C2680A600431BF
:10401000F0C147460F6004314F460F6004315746E8
:104020000F6004315F460F60043102690A60083195
:1040300042690A60043182690A600431C2690A6017
:104040000431034620334FF40076324200D004336B
:1040500075464FF01006354200D148330C46103CEF
:104060002360EFF309820A600431EFF308820A60EB
:10407000043172460A600431EFF314820A6060462C
:10408000024B196800F08EF8FEE70000387201104C
:1040900070B584B0002407E0344B53F82420214647
:1040A000334800F069FB01340C2CF5DD2F48C36B5D
:1040B000826B416B846C0294446C0194006C0090A0
:1040C0002C4800F059FB2C4C21682C4800F054FB84
:1040D000E16AA26AA36AA06A000C256BE66B0296ED
:1040E00001950090C3F30723D2B2254800F044FBAA
:1040F000A36A13F0800F15D11F4B9B6A13F4004F76
:1041000015D11A4BDB6C13F0080F1AD01D4800F0C4
:1041100033FB164B1B6D13F0010F0ED01A4800F045
:104120002BFB14E0616B194800F026FBE4E7124B0F
:10413000996B174800F020FBE3E7164800F01CFBE2
:1041400005E0154800F018FB124800F015FB074B7E
:10415000DB6C13F0040F04D1104800F00DFB04B029
:1041600070BD0F4800F008FBF9E700BFAC4A00083B
:10417000D8720110E872011000ED00E038730110F0
:1041800048730110B8730110C873011098730110BF
:10419000A8730110D8730110EC730110087401109A
:1041A000FC73011030B583B005460C461B4B012152
:1041B000D3E84F2FC3E8401FD2B23AB10025002305
:1041C000009322461649284600F084FC154800F06A
:1041D000D3FA302D18D0402D1BD0202D04D01248FA
:1041E00000F0CAFA114D03E0114800F0C5FA114D74
:1041F000114800F0C1FAFFF74BFF104800F0BCFA7D
:10420000064B00221A70DAE70D4800F0B5FA0D4DA2
:10421000EEE70D4800F0B0FA0C4DE9E7004B00085E
:10422000C87201103C720110907201103D01FF80B4
:10423000687201103E01FF809C720110A87201108B
:10424000787201103F01FF80847201104001FF80ED
:104250002DE9F04107460C46164600F05BFC424B48
:104260001D68002D3ED0414B9D4254D1284601F09F
:1042700089F904F1080138460DF05CF80146002880
:104280004ED004603A4B436000F10805394B1A6880
:1042900022441A60986820449860186901301861B7
:1042A0005B689A4201D9334B5A6051F8043C23F0C1
:1042B00001031B1B2F498A6913448B612A4B1F681A
:1042C000002F33D0294B9F4249D1384601F07AF96B
:1042D00032462146284600F08DFC00F053FC28466B
:1042E000BDE8F081244B186818B14FF0FF3102F09F
:1042F000D9FB1D4B1D6835B11F4B18680028B2D083
:1043000002F0ECFBAFE798461D1D284601F032F99C
:10431000C8F80050F0E78B221849194800F014F94A
:10432000144A5369013353610025C7E7124B1868DB
:1043300018B14FF0FF3102F0B5FB0B4B1F6837B1DE
:104340000D4B18680028BDD002F0C8FBBAE79846AC
:104350001F1D384601F00EF9C8F80070F0E78B22F7
:104360000649074800F0F0F8783500087C35000869
:10437000EFBEADDE5C350008084B0008E86E0110AA
:10438000106F011008B57246FFF762FF08BD2DE9F6
:10439000F041F0460C46154600F0BCFBECB154F879
:1043A000087CE5B128460CF0B5FF064650B1AF4297
:1043B00000D32F463A46214630460DF0C9FA204632
:1043C0000CF0B0FF43462A462146304600F026FC5A
:1043D00000F0D8FB3046BDE8F0810027E1E7002679
:1043E000F0E700002DE9F04107460C46164600F0C4
:1043F00091FB3D4B1D681DB33C4B9D4239D1284676
:1044000001F0C0F854B1A4F1080154F8042C384B61
:104410009A4233D0214638460CF01AFC324B1D68C4
:10442000002D43D0314B9D4258D1284601F0CAF8A7
:104430003146204600F022FC00F0A4FBBDE8F081EC
:104440002C4B186818B14FF0FF3102F02BFB264BB4
:104450001D6835B1274B18680028CDD002F03EFB0F
:10446000CAE798461D1D284601F084F8C8F8005098
:10447000F0E78B222049214800F066F854F8082C18
:1044800054F80C3C23F00100002344F8043C1C4B7E
:104490001D68AD1A1D601D69013D1D61121A9869E4
:1044A00002449A6138460CF0D3FBB7E7114B186809
:1044B00018B14FF0FF3102F0F5FA0B4B1D6835B122
:1044C0000C4B18680028ADD002F008FBAAE71F4685
:1044D0001D1D284601F04EF83D60F1E78B2206498C
:1044E000064800F031F800BF783500087C35000838
:1044F000EFBEADDE084B0008E86E0110106F011032
:104500005C35000808B57246FFF76CFF08BD2DE961
:10451000F041F0460D46164600F0FCFA06FB05F7A2
:1045200038460CF0F7FE044618B13A4600210DF06B
:104530000DFB434632462946204600F087FB00F03B
:1045400021FB2046BDE8F08100B583B000920B4608
:1045500000220146014800F0BDFA00BF4401FF807F
:1045600038B5044600F028F9D4E9004500F03CF9DC
:104570002046294638BD000000B585B000F01CF982
:10458000564901A8FEF764FF002435E03F22544954
:104590005448FFF7D9FF544A126891693FE001235C
:1045A0000393524800F0B1FF9DF80830F3B1019B2E
:1045B000B3F1FF3F11D0C3F307420E2A12D84A4984
:1045C0000968896901EBC211DBB2072B00D901BE72
:1045D000012202FA03F34B600AE03F2240494148BE
:1045E000FFF7B2FF404A12689169EDE70023039399
:1045F0003E4800F08AFF0134032C19DC9DF8083096
:10460000002BCCD0019BB3F1FF3FBFD0C3F30742D7
:104610000E2AC0D834490968896901EBC211DBB29E
:10462000072B00D901BE012202FA03F38B60B8E721
:10463000002435E03F222A492A48FFF785FF2A4A0D
:104640001268916940E001230393294800F05DFF5F
:104650009DF80830F3B1019BB3F1FF3F11D0C3F3D4
:1046600007420E2A12D820490968896901EBC21154
:10467000DBB2072B00D901BE012202FA03F34B6023
:104680000AE03F2216491748FFF75EFF164A1268F4
:104690009169EDE700230393154800F036FF0134DC
:1046A000032C3FF771AF9DF80830002BCBD0019B56
:1046B000B3F1FF3FBED0C3F307420E2ABFD80A4969
:1046C0000968896901EBC211DBB2072B00D901BE71
:1046D000012202FA03F38B60B7E700BF0500010077
:1046E000346F0110746F0110985D0008F0490200EA
:1046F000801A060010B582B004460022014602204E
:1047000000F01EFD00F058F8002206E001222146CC
:10471000022000F015FD14F8012B237863B10A2B59
:10472000F4D10D2AF2D002A90D2301F8013D012296
:10473000022000F005FDE9E700F056F802B010BDD8
:1047400000B5A3B00B460246842101A810F0A8F8DA
:104750000346832806D9074A1068CDF883001279EA
:104760008DF88720002B02DD01A8FFF7C3FF23B0DF
:104770005DF804FB147401100FB400B583B004A9F4
:1047800051F8040B0191FFF7DBFF03B05DF804EB78
:1047900004B07047EFF3108313F0010F0CBF01203A
:1047A00000207047EFF30580003018BF01207047EC
:1047B00008B5FEF703FE08BD08B5FEF7D3FD074BAD
:1047C0001B68B3F1FF3F03D00133044A136008BDF7
:1047D0003F2203490348FFF7B7FE00BFA03500089A
:1047E0001C7401104874011008B5054B1B681BB1FF
:1047F000013B034A136003B108BDFEF7C5FDFBE7AB
:10480000A03500080146D8B102680F4B1344012BB4
:1048100009D90E4B9A4211D0033B9A4201D0002392
:1048200002E0012300E00123184663B18B684BB11D
:10483000DB6C13F0080F06D0002070470123F3E76C
:104840000020704700207047C2FE007F4001FF80BB
:1048500030B58FB00D46041E00DB2A4C30220021FB
:1048600002A80DF073F901940395274B2344012B03
:1048700009D9264B9C4233D0033B9C4201D00023F4
:1048800002E0012300E00123002B2BD0EB6B02930D
:104890006B6B08931E4B5B690493DA6B05925A6B42
:1048A00006921B6B0793FFF787FF1A4A13680133C1
:1048B0001360012B1BD0184C01AD0FCD0FC40FCDD1
:1048C0000FC40FCD0FC42B682360144B1B6813B1AA
:1048D000A4F130009847FFF787FF00200FB030BDEC
:1048E0000123D1E7129B029301AB0893D2E70C4C52
:1048F00001AD0FCD0FC40FCD0FC40FCD0FC42B686A
:104900002360D8E70101FF80C2FE007F4001FF80E5
:10491000A0230008A4350008E4350008A8350008E5
:10492000AC3500082DE9F04184B004460F46164628
:1049300098460168C1F34173032B16D08DB2C1F3C1
:1049400007432A463C48FFF717FFA5F23115132D00
:1049500011D8DFE805F00C2F34393E48434D1010D4
:10496000101010101010101010524D42E7E7A168FF
:104970003248FFF701FF3846FFF7BCFE6168304858
:10498000FFF7FAFE4EB12F48FFF7B4FE3046FFF7AF
:10499000B1FE41462C48FFF7EFFEA1682B48FFF718
:1049A000EBFE2046FFF72EFFE36853B3596849BB7F
:1049B000274927E0A1682748FFF7DEFEDBE7A1686B
:1049C0002548FFF7D9FED6E7A1682448FFF7D4FEB3
:1049D000D1E7A1682248FFF7CFFECCE7A1682148C4
:1049E000FFF7CAFEC7E7A1681F48FFF7C5FEC2E789
:1049F000A1681E48FFF7C0FEBDE71D48FFF7BCFEDB
:104A0000B9E71349A8B91B4AE0690390A06902906D
:104A100060690190206900901748FFF7ADFE21689A
:104A20001648FFF7A9FE1648FFF7A6FE04B0BDE83A
:104A3000F081144AE8E700BF94740110E874011093
:104A400098750110AC750110B4750110B87501109E
:104A50007C74011000750110107501102075011093
:104A600034750110487501105C7501106C750110EA
:104A70008475011070770110CC7501102876011033
:104A8000807601108874011008B50D4B0121D3E820
:104A90004F2FC3E8401FD2B20028F6D12AB1FFF74A
:104AA0008BFEBFF34F8F20BFFDE7FFF77BFE10B9F2
:104AB000FFF770FE08B9FFF75FFD012000F0D4FC9E
:104AC000E035000800207047014B1878C0B27047ED
:104AD000004B000880B582B00E4611461D460B4BB8
:104AE0000124D3E84F2FC3E8474FD2B20AB1FFF7F2
:104AF000CBFFCDF800E0049B2A46FFF7A9FE049BFC
:104B00002A4631460248FFF70DFFF0E7004B000848
:104B1000E435000838B5154B1C6854B1144B9C4261
:104B20001FD1204600F02EFD124A13780133137076
:104B300038BD114B186818B14FF0FF3101F0B2FFCA
:104B40000A4B1C6834B10C4B18680028E6D001F001
:104B5000C5FFE3E71D461C1D204600F00BFD2C6041
:104B6000F1E78B2205490648FFF7EEFC1C360008EA
:104B70002036000844360008084B0008E86E011093
:104B8000106F011038B5154A1378013B1370144BA0
:104B90001C6834B1134B9C421BD1204600F012FD1F
:104BA00038BD114B186818B14FF0FF3101F07AFF92
:104BB0000B4B1C6834B10C4B18680028EAD001F08C
:104BC0008DFFE7E71D461C1D204600F0D3FC2C603E
:104BD000F1E78B2205490648FFF7B6FC443600088A
:104BE0001C36000820360008084B0008E86E01104B
:104BF000106F011038B50446064805683DB1064BF4
:104C00001B78012B03D80B4621460020A8472046DD
:104C100038BD00BF183600084436000830B583B0F0
:104C200004461846074B1D684DB1074B1B78012BF6
:104C300005D800920B46024621460120A84720468F
:104C400003B030BD183600084436000830B583B0D4
:104C500004461846074B1D684DB1074B1B78012BC6
:104C600005D800920B46024621460220A84720465E
:104C700003B030BD183600084436000810B5064BA6
:104C80001C6844B1054B1B78012B04D80A46034627
:104C900000210320A04710BD183600084436000844
:104CA000094B1B6813B1084B1868704710B5FEF725
:104CB0005BFC064C01462046FEF7E0FF024B1C6001
:104CC000014B186810BD00BF803600084836000848
:104CD00010B582B004460BE01F490868FFF7AAF838
:104CE00018E000F0A9F801A8FEF7C0FFBFF36F8F2E
:104CF000A36813B1E068984758BB174B1B6893F83B
:104D0000323033BBD4E90023B3F1FF3F08BFB2F127
:104D1000FF3FE1D101A8FEF7A3FFA36813B1E0684C
:104D2000984798B90C4B1B6893F8323073B9D4E9A3
:104D30000023B3F1FF3F08BFB2F1FF3FD1D0064BD4
:104D40001B6893F83130002BCDD0CAE701A8FEF7DD
:104D50008DFF02B010BD00BF8036000810B584B0D2
:104D6000CDE9000102920393FFF79AFF6846FFF72F
:104D7000AFFF044C2068FEF7A5FF2068FFF718F886
:104D800004B010BD803600082DE9F04706460F46F6
:104D90009046FFF785FFFEF7B5FF0A4B1B6893F8B7
:104DA0003040E4B20025001B61EB0501814643461B
:104DB0003A46801941F10001FFF7D0FFA0EB09004E
:104DC000BDE8F08780360008094BD3E85F2F013239
:104DD000C3E8512F0029F7D192B202B1704700B554
:104DE00083B01A880023009302490348FFF772FE3C
:104DF000843600089C760110230104800B4BD3E815
:104E00005F2F013AC3E8512F0029F7D192B24FF634
:104E1000FF739A4200D0704700B583B0034B1A88E5
:104E20000023009302490348FFF754FE843600082C
:104E3000C076011024010480F8B5FFF7BDFC144BC7
:104E40001B68E3B1124E3068FEF7C3FE04460D4600
:104E500004F06AF83368BBB10D4B1868FEF7B9FE71
:104E6000041B61EB050526460A4CD4E90023901982
:104E700043EB0501C4E90001FFF7B6FCF8BDFEF7FE
:104E800073FB034B1860DDE7FEF76EFB3060E3E772
:104E900088360008903600086FF01C0070476FF0ED
:104EA00015007047012070470020704770470000D0
:104EB00070B50E4615460024AC4205D2315D03485C
:104EC00003F0FCFF0134F7E7284670BD5C5C000886
:104ED0000AB90020704710B50C46034803F0D6FF0E
:104EE0002070012010BD00BF5C5C000838B58CB29A
:104EF00014F0010F05D1002514F0100F09D1284638
:104F000038BD084803F0EEFF08B90025F4E7012595
:104F1000F2E7044803F0EDFF0028F0D045F010055B
:104F2000EDE700BF5C5C000870B50446084B036009
:104F3000084B1B680BB1204670BD1546064E304627
:104F4000FEF780FE2946304603F088FFF3E700BFF6
:104F5000E8760110C44300085C5C0008002070473C
:104F60000020704708B5012000F07EFA074B1B684F
:104F70001844074A824203D3044A10601846704717
:104F8000044B0C221A604FF0FF3070479823000842
:104F900000740408C05D00080120704701207047BC
:104FA00008B500F089FB08BD08B500F08FFB08BD0F
:104FB000037803F00303012B20D010B50446114BF6
:104FC000186818B14FF0FF3101F06CFD237803F041
:104FD0000302012A05D05AB943F0020323700120CD
:104FE00010BD084B186858B101F078FD0020F7E7B4
:104FF00040F29D6204490548FFF7A6FA0020704779
:105000000020EDE7084B000874770110A477011029
:1050100008B5037803F00302022A0CD123F003033E
:105020005BB243F00103DBB20370064B186808B1B2
:1050300001F054FD08BD40F2A66203490348FFF7A2
:1050400083FA00BF084B000874770110C477011081
:105050000F4B1B78BFF35B8F13F0010F01D00D488E
:10506000704710B50A48FFF7A3FF08B9094810BDFB
:10507000084C4FF4165208492046FFF755FF0448E4
:10508000FFF7C6FF054A06492046FFF785FFEDE713
:10509000983600081C3700083C7701108C22000865
:1050A000AD4E001010B50446FFF75AFF034608B195
:1050B000184610BD2046FFF751FF03460028F7D1E0
:1050C000FFF7C6FF0346F3E73F2811DC10B504469F
:1050D000084A52F82000B0F1FF3F00D010BD022C6A
:1050E000FCDC2046FFF7DEFF024B43F82400F5E727
:1050F000002070479822000810B50446FFF7E4FF2F
:105100000C4B002243F8242030B1026852699047CA
:10511000041E08DB002010BD0BF08CFB092303608C
:105120004FF0FF30F7E70BF085FB644204604FF06F
:10513000FF30F0E79822000808B5FFF7DDFF08BD53
:1051400070B50C461546FFF7BFFF40B10268D66840
:105150002A462146B047041E08DB204670BD0BF0EE
:1051600069FB092303604FF0FF34F6E70BF062FBA5
:10517000644204604FF0FF34EFE770B50C4615460B
:10518000FFF7A2FF40B1026896682A462146B04761
:10519000041E08DB204670BD0BF04CFB09230360A6
:1051A0004FF0FF34F6E70BF045FB644204604FF02C
:1051B000FF34EFE710B5FFF787FF30B10268D2691F
:1051C0009047041E07DB204610BD0BF033FB09237C
:1051D00003600024F7E70BF02DFB64420460002419
:1051E000F1E7022801DD0020704708B5FFF7E2FF74
:1051F00008B9002008BD0120FCE700002DE9F04FB0
:1052000083B082460D469346FFF7CCFA88B9FFF784
:10521000C1FA70B1D946BBF1000F11DB5046FFF760
:10522000E0FF00283BD0304B13F80A700024A04662
:105230001BE00023009352462C492D48FFF74AFCFF
:105240000BF0F8FA162303604FF0FF382BE0012231
:1052500028495046FFF774FF00283FDB23DD224B2F
:105260000D2203F80A2037780134A14519DD2E19E3
:105270002B5D0A2BF7D10D2FF5D0A045E7DAA4EB73
:10528000080205EB08015046FFF75AFF002822DB11
:105290008044444507DC144B03F80A70D7E74FF00D
:1052A0000008C34503DC404603B0BDE8F08FABEB1C
:1052B000080205EB08015046FFF742FF002810DB0B
:1052C0008044B8F1000FEEDD454415F8012C064B83
:1052D00003F80A20E7E74FF0FF38E4E74FF0FF3824
:1052E000E1E74FF0FF38DEE7DC36000838780110E0
:1052F0002F0101807478011070B584B004460E4609
:105300001546FFF74FFA30BBFFF744FA18B3002DEC
:1053100028DB2046FFF765FF002842D001220DF16F
:105320000F012046FFF729FF002837DB88B19DF8E1
:105330000F300D2B1DD00A2B24D00D2B27D00A2B7C
:1053400003D11B4A125D0D2A25D0194A135533701B
:10535000012004B070BD0023009322461549164871
:10536000FFF7B8FB0BF066FA162303604FF0FF302F
:10537000EFE70F4A125D0A2ADDD00D4A13550A23C2
:105380003370E5E70A4A125D0D2AD6D0F5E7084AE0
:10539000125D0A2AD3D1064A1355BFE74FF0FF30FA
:1053A000D7E72A4631462046FFF7E7FED1E700BFA0
:1053B0009C360008FC7701102F01018008B5FFF72B
:1053C000F9FE08BD70B50C461546FFF77DFE40B1ED
:1053D000026816692A462146B047041E08DB2046AB
:1053E00070BD0BF027FA092303604FF0FF34F6E796
:1053F0000BF020FA644204604FF0FF34EFE708B589
:10540000FFF7E0FF08BD10B5FFF75EFE30B10268A0
:1054100092699047041E08DB002010BD0BF00AFAC9
:10542000092303604FF0FF30F7E70BF003FA644203
:1054300004604FF0FF30F0E708B50546094C2368DB
:1054400098680BF03DFB2368D8680BF039FB01200E
:10545000FFF7D9FF0220FFF7D6FF05B9FEE7FFF7F8
:105460008BF800BF7425000808B5FFF7E5FF38B5D5
:105470000D46FFF729FE70B104460368DB699847C3
:1054800080B14FF400536B6023689B6A20469847B5
:105490002861002038BD0BF0CDF9092303604FF0DF
:1054A000FF30F7E74FF40043EDE708B5FFF7DFFF04
:1054B00008BD000010B582B0044672460146074B95
:1054C0001868FEF7C5FE08B102B010BD00230093B6
:1054D000224603490348FFF7FDFA00BF7425000880
:1054E000547701101F01018008B572460146024B36
:1054F0001868FEF777FF08BD7425000810B504464C
:105500000421FFF7F1FF204610BD70B50646FEF7F7
:1055100089FB0546FEF76EFB04462846FEF76AFB4C
:10552000001BB042F9D370BD10B584B0044600230F
:1055300003620B4669B10093231D02931C2303935E
:105540000B230193684601F091FA206018B104B072
:1055500010BD054BEFE7FFF7B7FA0028F7D1382267
:1055600002490348FEF7F0FF7878011094780110A3
:10557000B878011010B504460021FFF7D5FF20468A
:1055800010BD000030B583B004464FF0FF31006815
:1055900001F088FA054610B9236A0133236215B970
:1055A000002003B030BDFFF78FFA0028F8D10023A8
:1055B00000932A4601490248FFF78CFADC78011073
:1055C0001501028030B583B00546006801F086FA07
:1055D000044610B92B6A013B2B6214B9204603B074
:1055E00030BDFFF771FA0028F8D10023009322465E
:1055F00001490248FFF76EFAF078011017010280A6
:1056000010B50446006801F085FA204610BD000080
:1056100008B5094A094B1A60094B9B1A094A1360DD
:10562000094A0A4B1A600A4B9B1A0A4A136000F097
:1056300055F800F069F800BF007404088C370008C2
:105640000078040888370008C85D0008243700087F
:10565000007404082037000838B50D480D4B03606E
:105660000B2545601C24C4600B4B836001F0FEF9E0
:105670000A4B18600A480B4B03604560C4600A4B34
:10568000836001F0F3F9094B18600BF091FD38BD10
:1056900058370008047901106C3700086837000893
:1056A00028370008147901103C3700083837000803
:1056B00008B5FCF793FE08BD08B54FF0FF31024B6B
:1056C000186801F0EFF908BD6837000808B5024B0B
:1056D000186801F003FA08BD6837000808B503F040
:1056E000DBFD00F00CF808BD704708B5FFF7B4FF0C
:1056F000FFF7FAFFFFF7E6F9FFF7DAFF08BD08B595
:1057000000F0B4FB08BD000000B583B01848194B89
:1057100003600B2343601C23C360174B8360174C4B
:10572000174B23614FF4805363614423E360154BAF
:10573000A3601823A361144B236001F097F9134B66
:10574000186022460021124801F016FF40B100F017
:10575000ABFB0022009213460E490F48FFF7BAF93F
:105760000023009322460D490B48FFF7B3F900BF11
:10577000345B000820790110445B0008105B0008CE
:10578000104B00089037000830790110084B0008D2
:10579000EB560010547901101D0101803879011079
:1057A00008B5024B1B6803B1984708BDD437000801
:1057B000063005280ED8DFE800F00B0907050F03B7
:1057C00006487047064870470648704706487047C5
:1057D0000648704706487047064870476C790110C4
:1057E000B8790110D0790110E0790110F879011031
:1057F000147A01108479011070B582B005460E4606
:105800001446FFF761F908B102B070BD3046FFF7EA
:10581000CFFF002300932A4601462046FFF75AF99E
:1058200008B500F0FDF8000000B583B0431E042B5E
:1058300027D8DFE803F0030A11181F0000230093A4
:10584000024613491348FFF745F900230093024627
:1058500011491248FFF73EF9002300930246104910
:105860001048FFF737F90023009302460E490F480E
:10587000FFF730F90023009302460D490D48FFF76A
:1058800029F90023009302460B490C48FFF722F93F
:105890001C7A011025010280407A01102601028045
:1058A000687A011027010280A07A01102801028085
:1058B000DC7A01102A0102801C7B011000010280A9
:1058C00008B5024A0146FFF797FF08BD3101018084
:1058D00008B5024AFFF790FF08BD00BF3201018002
:1058E00008B5024AFFF788FF08BD00BF33010180F9
:1058F00011F1110F04D008B5024AFFF77DFF08BD72
:10590000704700BF3401018008B5024AFFF774FFF9
:1059100008BD00BF3801018008B501F049FEFFF75E
:105920003FFF08BD024B987A003018BF0120704736
:10593000A023000808B500F0D3FA00220649FFF7BB
:1059400023FAB0F1FF3F02D000F0E4FA08BD89224B
:1059500002490348FEF7F8FD25590010787B011035
:10596000B07B011010B5B0F57A7F22D10C46FEF75E
:10597000A5F9002822DB00F1604303F56143E02232
:1059800083F80023134A916800F1100341F8234083
:10599000926852F82330A34217D1002807DB00F0A9
:1059A0001F024009012393400B4A42F82030002097
:1059B00010BD342209490A48FEF7C6FD00F00F0267
:1059C000084B1344E0221A76DCE7412203490648DB
:1059D000FEF7BAFD00ED00E000E100E0787B011089
:1059E000387B0110FCEC00E0487B011008B5FFF7A4
:1059F00057F9FEF779FA08BD08B5024B1868FEF7AB
:105A0000BBFA08BD8036000808B5024B1868FEF7DF
:105A10007AFA08BD8036000808B5FEF74FF908BDD0
:105A200008B5024B1B689847FBE700BF9C230008A2
:105A30001EF0040F0CBFEFF30880EFF309808169BB
:105A400011F8021C91BB01B590E80F10E047BDE8CA
:105A500000508CE80300244B93E80600914208BFF5
:105A6000704741B91EF0100F10D12049086820F08E
:105A7000010008600AE02CE9F00F1EF0100F08BFCB
:105A80002CED108AC1F838C081F822E01A6092F833
:105A90002210906B61F0FF0E1EF0100F08BFB0ECEB
:105AA000108AB0E8F00F80F309887047104A136835
:105AB0009942FAD801B552F821C00FC8E047BDE8B5
:105AC0000050CCF80000704701B501F09FF9BDE827
:105AD0000140EFF3098CBEE701B501F053F9BDE8D1
:105AE0000140EFF3098CB6E7B423000834EF00E07F
:105AF000787C01105E4B1B7A012B00F0B68010B54C
:105B0000002B40F09C805A4C9C22002104F108009C
:105B10000CF01CF8574BDA68E2651A8AA4F8542096
:105B20009A682264DC6A196B204600F00DFA10B105
:105B30004F4BC3F880404F4B5C699969204600F099
:105B400003FA002800F08280494B5C67494BDC690E
:105B5000196A204600F0F8F900287CD0444B9C6775
:105B6000444B5C6A996A204600F0EEF9002877D031
:105B70003F4BDC673F4B5C6B44B1E368A268216834
:105B8000204600F06CFA3A4BC3F88440394B9C6BCA
:105B900044B1E368A2682168204600F060FA344B03
:105BA000C3F88840334BDC6B44B1E368A2682168DA
:105BB000204600F054FA2E4BC3F88C402D4B1C6C41
:105BC00044B1E368A2682168204600F048FA284BF7
:105BD000C3F89040274B5C6C44B1E368A26821682D
:105BE000204600F03CFA224BC3F89440214B9C6CB9
:105BF00044B1E368A2682168204600F030FA1C4BEB
:105C0000C3F898401B4BDC6C44B1E368A268216880
:105C1000204600F024FA164BC3F89C40154B1C6D2F
:105C200044B1E368A2682168204600F018FA104BDE
:105C3000C3F8A0400E4B01221A72002010BD4FF095
:105C4000FF30FFF73DFE4FF0FF30F7E7084BD3F88A
:105C500080205A677AE7064BD3F880209A677FE75F
:105C6000034BD3F88020DA6784E70020704700BF39
:105C7000A0230008107C011008B5084B00225A72BE
:105C8000BFF34F8F9B7A2BB1044B9A72044B4FF0AA
:105C900080525A60FFF7AAFE08BD00BFA02300088B
:105CA00000ED00E010B52E4B1B7A012B0FD101F057
:105CB00041FC98B12B4BFF2283F8222093F822302D
:105CC00063F0FF03DB4310D0B3FA83F30EE06FF011
:105CD0000600FFF7F5FD4FF0FF3034E04FF0FF30E6
:105CE000FFF7EEFD4FF0FF302DE02023C3F120033E
:105CF0001C4AD268C2F30222934200D8531CFE22EF
:105D000002FA03F3DBB2174AD3771749174B5868E7
:105D1000FFF728FEC0B9FFF77FFE114C2061FFF7A7
:105D200065FE04F11C0001F0CBF901F035FA0F4BD0
:105D30001B6813F0010F0ED0022383F31488084B65
:105D400002221A72002010BD4FF0FF30FFF7B8FD9D
:105D50004FF0FF30F7E7032383F31488EFE700BF2A
:105D6000A023000800ED00E0D95A0010107C0110BB
:105D700008B5FFF741FE094B01225A72BFF34F8F5E
:105D8000074B5B6813F0805F06D0054B4FF0006255
:105D90005A60024B01229A7208BD00BFA02300087E
:105DA00000ED00E008B50F4B1B7A022B05D06FF019
:105DB0000700FFF785FD002008BDFFF7D9FF094B5D
:105DC000DB6A5BB1D869074B5B6C1BB11B69834213
:105DD00000D21846034B04221A72EDE74FF0FF3051
:105DE000F1E700BFA023000838B51E4B1B7A042B37
:105DF00000D038BD04461B4BDA680244DA60DB6A27
:105E00008BB1054604E0551BDD6100255BB155B142
:105E1000DA69AA42F7D8AD1A0122DA6101F080F9F5
:105E2000104BDB6AF2E70F4B5B6C7BB90D4B022228
:105E30001A72002001F0BAF9FFF71EFFD9E7141B10
:105E40001C610024002BF1D0002CEFD01A69A24273
:105E5000F5D8A41A01221A61024D2B6D98476B6C7C
:105E6000F0E700BFA02300087047000008B5FFF767
:105E7000FBFFEFF305836BB9EFF3108323B9EFF367
:105E8000118313B1012300E001231BB9DFF814C013
:105E900000DF08BD6FF00500FFF712FD6FF0050091
:105EA000F7E700BFF55A001008B5EFF305836BB9AB
:105EB000EFF3108323B9EFF3118313B1012300E053
:105EC00001231BB9DFF814C000DF08BD6FF0050027
:105ED000FFF7F6FC6FF00500F7E700BFA55C0010C8
:105EE00008B5EFF305836BB9EFF3108323B9EFF334
:105EF000118313B1012300E001231BB9DFF810C0A7
:105F000000DF04E06FF00500FFF7DAFC002008BDB9
:105F1000A55D001008B5EFF305836BB9EFF31083AF
:105F200023B9EFF3118313B1012300E001231BB95F
:105F3000DFF810C000DF03E06FF00500FFF7C0FCE2
:105F400008BD00BFE95D0010D0B1034610F0070F97
:105F500018D111F0070F17D1172917D910B4016004
:105F60001020586003F1080408395A189A6000227A
:105F70005A509B685860626001205DF8044B70477E
:105F800000207047002070470020704700207047B5
:105F90008446002838D0002937D032F0030336D1A8
:105FA000F0B40F3121F0070600F108031D681F4609
:105FB000E91A5C6824F00304091B8E4206D929689B
:105FC0002B460029F2D10020F0BC7047DCF8041009
:105FD0003144CCF80410DCF8000008386044446810
:105FE000A14200D94160596849B121F003017818F4
:105FF0001C687C501643466018600830E4E716437E
:106000005E6007F10800DFE770470020704700205E
:106010007047E0B110B40446D9B1083900F1080363
:1060200000208B4204D01A681846A2B11346F8E744
:106030005A6822F003016268521A626018B11B6844
:106040000360012008E000225A60012004E00020E3
:106050007047002000E000205DF8044B7047B8B1A5
:1060600010B40446B1B1CAB1D3B101600020606080
:10607000A260E360636102FB0130206102E09818D6
:10608000186003460139FAD100221A60012002E0AB
:106090000020704708465DF8044B70471046FAE749
:1060A0000020F8E7D8B110B4034600F1140252E81A
:1060B000001F11B9BFF32F8F04E0086842E8000405
:1060C00004B1F4E7084639B1043353E8002F511CFA
:1060D00043E8001404B1F8E75DF8044B7047002072
:1060E000704708B30346C2688A4220D802698A42D0
:1060F00020D930B400F1140210680860BFF35F8F3C
:1061000052E8000F0C688442F6D142E8001505B150
:10611000F2E7043353E8002F511E43E8001000B1AA
:10612000F8E7002030BC70476FF0030070476FF055
:10613000030070476FF00300704730B4036BE3B1A6
:10614000002501E01D465B681BB1DC78CA789442EB
:10615000F8D34B608D6063B1996065B16960283098
:1061600050E8003F5A1C40E8002101B1F8E730BC7C
:106170007047C162F1E70163F1E700234B608B6078
:10618000C1620163EBE710B400F1280353E8002F6C
:1061900012B9BFF32F8F04E0511E43E8001404B17D
:1061A000F4E76AB1C06A60B1831C0121D3E84F2FC4
:1061B000C3E8441F04B1F9E7D2B212B18068F2E734
:1061C00000205DF8044B70474B6833B18A689A60D1
:1061D0008B682BB14A685A6070478B68C362F7E7D7
:1061E0004B680363704770B50446837853B985687C
:1061F000AB6813B15B78832B37D021462846FFF775
:106200009CFF70BDC56801462846FFF7DDFF0023EF
:10621000237005F10C0621463046FFF762FFAB689C
:10622000002BEED03046FFF73DFF04460028E8D0B3
:10623000284600F045FF06460022114600F0E6FF22
:10624000304600F089FF06466A6A816804F10C0056
:106250000BF07EFBF92323700023A370337BE370E4
:1062600021462846FFF769FFCBE7284600F028FFC4
:1062700006460022114600F0C9FF304600F06CFFD0
:1062800006466A6A04F10C0180680BF061FBF36852
:106290000BB1E2781A7000232370214605F10C003F
:1062A000FFF71FFFADE700002DE9F84F00284ED0A3
:1062B0000E46074600294AD0CB1C23F00303B0FA50
:1062C00080F113F10C0549D0B5FA85F30B441F2B6F
:1062D00046D905FB07FA002A6AD0D2F800909468E4
:1062E000D2F810805369002C48D014F0030F3ED12F
:1062F000D268332A3BD9B8F1000F50D018F0030F01
:1063000046D19A4544D8002C57D04FF0000B14B119
:10631000B8F1000F66D0002C00F08980FA232370BA
:1063200084F802B0C4F804900023A3606662A362FC
:10633000E362236343462A46394604F10C00FFF723
:106340008EFE3E4B3E4A1A672046BDE8F88F6FF03E
:1063500003010020FFF7D8FA0024F5E72023B5E772
:106360006FF003010020FFF7CFFA0024ECE76FF095
:1063700008010020FFF7C8FA0024E5E7D268002AE8
:10638000B9D06FF008010020FFF7BEFA0024DBE768
:106390006FF009010020FFF7B7FA0024D4E7002BC3
:1063A000B1D06FF009010020FFF7AEFA0024CBE76F
:1063B0004FF00009C8464C46A5E7204BD3F8A00093
:1063C00028B1FFF76FFE04464FF0010B9FE7012253
:1063D00034211A4BD3F88000FFF7DAFD04464FF062
:1063E000010B94E700225146144BD86FFFF7D0FD04
:1063F000804630B1524600210BF0A8FB4BF0020B57
:1064000089E71BF0010F10D00C4BD3F8A00020B18E
:106410002146FFF766FE0024F0E72146074BD3F83C
:106420008000FFF7F6FD0024E8E70024E6E76FF0C0
:1064300004010020FFF768FA86E700BFA0230008E8
:10644000E76100102DE9F0410446D8B10D469046B1
:106450001F460378FA2B15D1A1B1836813B15B787D
:10646000832B17D004F10C00FFF71CFE064638BB47
:10647000002F46D03946932001F004F890BB6FF00E
:1064800001002DE06FF003012046FFF73DFA6FF0A9
:10649000030025E000F014FE06460122002100F072
:1064A000B5FE304600F058FE0646626A294680680E
